:100000000C945A000C9477000C9477000C947700B1
:100010000C9477000C9477000C9477000C94770084
:100020000C9477000C9477000C9477000C941607CE
:100030000C9477000C9477000C9477000C94770064
:100040000C9477000C9477000C9477000C94770054
:100050000C9477000C9477000C9477000C94770044
:100060000C9477000C9477000C9477000C94770034
:100070000C9477000C9477000C9477000C94770024
:100080000C9477000C9477000C9477000C94770014
:100090000C9477000C9477000C9477000C94770004
:1000A0000C9477000C9477000C9477000C947700F4
:1000B0000C94770011241FBECFEFD8E0DEBFCDBF78
:1000C00011E0A0E0B1E0EAE8F5E102C005900D9290
:1000D000AC3DB107D9F722E0ACEDB1E001C01D9213
:1000E000AE31B207E1F70E94C4060C94C30A0C9427
:1000F0000000ECE7F0E0808180648083EAE7F0E0D4
:10010000808182688083089590917C00907F8F70B9
:10011000892B80937C0080917A00806480937A00A0
:1001200080917A0086FDFCCF8091780090917900D3
:1001300008950F931F932D988FE99FE00197F1F792
:1001400000C0000030E280E090E0DC014AE02B9A41
:10015000242F2A95F1F7880F991FAA1FBB1F23B1DF
:1001600022952170822B2B98242F2A95F1F731505C
:1001700071F7EFE9FFE03197F1F700C000002D9A29
:10018000EFE9FFE03197F1F700C000008C019D011D
:1001900042E136952795179507954A95D1F7109323
:1001A000DF010093DE018C019D0154E03695279517
:1001B000179507955A95D1F71F701093DD0100939D
:1001C000DC018A2F81701F910F9108952F923F9229
:1001D0004F925F926F927F928F929F92AF92BF9257
:1001E000CF92DF92EF92FF920F931F93CF93DF9303
:1001F00000D000D000D0CDB7DEB77A8369831C0170
:100200009C01285E3F4F3C832B8368EE462E63E0C3
:10021000562E612C712CF10180819181A281B381D4
:100220000097A105B10509F474C0B7FD8BC00E9409
:1002300099000091DE011091DF010E940907F10190
:1002400080819181A281B381BF779D014427552789
:10025000A8EEB3E00E949F076B017C0111C0CB01A7
:10026000801B910B069708F04198769567957695D7
:10027000679594014D815E8180E0E981FA8109955D
:100280000E9400076C157D058E059F05C8F50E942C
:10029000000724E630E040E050E00E944F07672B63
:1002A000682B692B29F4F10180819181080F191FB6
:1002B0000E940007A7019601261B370B480B590B1C
:1002C000CA01B901A30192010E944F0749015A01D5
:1002D000F1010190F081E02DFE83ED830E949900F1
:1002E0006091DE017091DF010617170708F4B7CFA0
:1002F000C801861B970B069708F4B7CF419AB5CF74
:10030000F4E02F0E311C2B813C812215330509F0BE
:1003100082CF26960FB6F894DEBF0FBECDBFDF9119
:10032000CF911F910F91FF90EF90DF90CF90BF90F2
:10033000AF909F908F907F906F905F904F903F9085
:100340002F9008950E940907F10180819181A28177
:10035000B381BF779D0144275527A8EEB3E00E94E3
:100360009F076B017C0110C0CB01841B950B069786
:1003700008F0419876956795769567959401A80160
:1003800081E0E981FA8109950E9400076C157D05DD
:100390008E059F0508F0B4CF0E940007A7019601C3
:1003A000261B370B480B590BCA01B901A301920157
:1003B0000E944F0749015A01F10100811181980102
:1003C000220F331F220F331F3E832D830E9499007B
:1003D0006091DE017091DF014D815E814617570704
:1003E00018F2CA01861B970B069720F2419AC2CFDA
:1003F000BF92CF92DF92EF92FF920F931F93CF9312
:10040000DF93EC017C0188E1E80EF11CE9E0CE2EDF
:10041000D12CBB24B39464E081E091E00E94AA0255
:10042000813009F449C0A8F0823049F4809100017C
:100430008B25809300012496CE15DF0561F7DF91AF
:10044000CF911F910F91FF90EF90DF90CF90BF90D1
:1004500008958091000122E0811172C04CE75CEFA9
:1004600064E873E083E591E00E9422049C01220F7E
:10047000331F220F331F820F931FB6010E943B07C9
:100480008B014AE050E060EF70E08FE591E00E9460
:1004900093039F77A0E0B0E0DC0199278827012E25
:1004A000000C220B330B802B912BA22BB32B8883B8
:1004B0009983AA83BB83BFCF80910001811136C08D
:1004C00047ED50E065E773E08CE791E00E9493030D
:1004D0009C01220F331F220F331F820F931F9C0199
:1004E000205A3109AFE8B3EE0E9490078C011695AF
:1004F000079516950795169507954AE050E060EF29
:1005000070E08FE591E00E9493039068A0E0B0E076
:10051000DC019927882720E030E0802B912BA22B4B
:10052000B32B88839983AA83BB8385CF44E650E0AD
:100530006BED71E08DE691E00E9493038C01DDCFBD
:100540004CE05EEF64EF71E087E491E00E942204EA
:100550008C0197CF4F925F926F927F928F929F9272
:10056000AF92BF92CF92DF92EF92FF920F931F93C1
:10057000CF93DF938C0177247A94760E972C812C7D
:10058000C0E9D1E0A62EB12C70E2672EEEE34E2E2C
:100590001A9B83C080E00E9484008233910508F496
:1005A0009EC08E3C934008F4A2C0FF24F39441E027
:1005B00050E0E92D092C000CFF0B882D082C000CB5
:1005C000990B9F01280F391FB901640F751F77FD23
:1005D00027C06A157B050CF099C0220F331F2050ED
:1005E0003E4FD9012D913C91D9016C92480F591F72
:1005F0002091FF0130E0421753070CF08EC057FDE9
:100600008CC08F0C882D082C000C990BE80FF91F5B
:10061000EE0FFF1FE050FE4F0190F081E02D408271
:10062000C93CD10508F0E297C8010E94F105892D67
:100630000E942D066E01E12CF12C0E94090780E03A
:100640000E9484008233910508F44EC055245394CF
:100650008E3C934090F4512C10C021E08E3C93408E
:1006600008F420E0521639F00E940007673971053E
:100670008105910588F51A9B2FC00E9400076C1513
:100680007D058E059F0508F083CF80E00E948400E1
:100690008233910510F72FEFE5CF1A9BFECF8FEF36
:1006A00095EAAEE081509040A040E1F700C0000024
:1006B000872D88198919DF91CF911F910F91FF9094
:1006C000EF90DF90CF90BF90AF909F908F907F90F2
:1006D0006F905F904F900895C0E9D1E059CFFF240B
:1006E000FA944FEF5FEF65CF55245A94C6CFC801F7
:1006F0000E94F105892D0E942D0680E9C82EDD2477
:10070000D394E12CF12CC0E9D1E097CF6A157B0599
:1007100009F086CF972C812C83CF9F0CE92D092CD3
:10072000000CFF0B73CF2F923F924F925F926F920C
:100730007F928F929F92AF92BF92CF92DF92EF9271
:10074000FF920F931F93CF93DF93CDB7DEB76697DA
:100750000FB6F894DEBF0FBECDBF9E012F5F3F4F97
:10076000790124E1F70111922A95E9F71A9B67C0F4
:100770006A014B019E8B8D8BA12CB12C841A950A9A
:10078000A108B1088CEF482E83E0582E612C712C03
:100790009BE8292E91E0392E80E00E948400DC0144
:1007A000A50194010E949F07A30192010E94710775
:1007B0008601020F131F1F930F93FE89FF932D894C
:1007C0002F933F922F92FF92EF920E94D007C70182
:1007D0000E94F10580E00E942D068FE39CE90197BD
:1007E000F1F700C000000FB6F894DEBF0FBECDBF1A
:1007F0001A99D2CF1A9BFECFFFEF25EA3EE0F150C7
:1008000020403040E1F700C00000C80166960FB6F6
:10081000F894DEBF0FBECDBFDF91CF911F910F9136
:10082000FF90EF90DF90CF90BF90AF909F908F9010
:100830007F906F905F904F903F902F90089500E0D1
:1008400010E0D8CF2F923F924F925F926F927F929B
:100850008F929F92AF92BF92CF92DF92EF92FF92D0
:100860000F931F93CF93DF93CDB7DEB766970FB685
:10087000F894DEBF0FBECDBFFE0131966F0134E1AB
:1008800011923A95E9F7222309F491C030E0EE2461
:10089000E394F12CF701EE0FFF1FEE0FFF1FEE0E9A
:1008A000FF1EEE0CFF1C3F5F2313F4CF1A9B58C0B2
:1008B0001A014B019E8B8D8BCA01550FAA0BBB0BE6
:1008C000092C000CAA08BB08881A990AAA0ABB0AB4
:1008D0008CEF482E83E0582E612C712C2AC0B70172
:1008E0000E943B079F938F93C801B7010E943B076B
:1008F0007F936F93FE89FF932D892F9381E991E078
:100900009F938F93DF92CF920E94D007C6010E94DF
:10091000F10580E00E942D068FE39CE90197F1F735
:1009200000C000000FB6F894DEBF0FBECDBF1A9B0B
:1009300019C080E00E948400DC01A50194010E949E
:100940009F07A30192010E944F078101020F131F0D
:10095000C80117FFC4CF88279927801B910BBFCFF1
:1009600000E010E01A9BFECFFFEF25EA8EE0F15089
:1009700020408040E1F700C00000C80166960FB635
:10098000F894DEBF0FBECDBFDF91CF911F910F91C5
:10099000FF90EF90DF90CF90BF90AF909F908F909F
:1009A0007F906F905F904F903F902F900895EE242E
:1009B000E394F12C7BCF28989091E00194FD13C033
:1009C000982F92959F709BB9299A95E09A95F1F787
:1009D0000000299895E09A95F1F70000299A95ED85
:1009E0009A95F1F700008BB9299A85E08A95F1F77D
:1009F0000000299895E09A95F1F70000299A85ED75
:100A00008A95F1F7000008959EE0E0E0F2E0DF0152
:100A10001D929A95E9F79FEF9AB994B1936094B9B2
:100A2000623008F4AFC098E19093E0016093FF0159
:100A30001092FB0190E49093FC018093FD0190E003
:100A4000805C9F4F8093FE018FEF8AB984B18360F1
:100A500084B91BB885B18C7F85B9BFEFE0E7F2E0C0
:100A6000B150E040F040E1F700C000008091E001AB
:100A700084FF33C080620E94DB04EFE4F6E4319728
:100A8000F1F700C000008091E00180620E94DB0469
:100A900087E592E00197F1F700C000008091E00146
:100AA00080620E94DB048091E00180620E94DB048E
:100AB00084E08093E2018CE00E94DB0481E00E94EC
:100AC000DB04AFE3BFE11197F1F700C0000082E063
:100AD0008093E10186E00C94DB0483E08BB9299AD2
:100AE00025E02A95F1F70000299895E09A95F1F70D
:100AF0000000299AA5EDAA95F1F70000EFE4F6E4CD
:100B00003197F1F700C000008BB9299AF5E0FA950A
:100B1000F1F70000299825E02A95F1F70000299ABD
:100B200095ED9A95F1F70000AFE4B6E41197F1F76F
:100B300000C000008BB9299AB5E0BA95F1F7000022
:100B40002998E5E0EA95F1F70000299AF5EDFA9584
:100B5000F1F7000087E592E00197F1F700C000008F
:100B600082E08BB9299A95E09A95F1F700002998CF
:100B7000A5E0AA95F1F70000299AB5EDBA95F1F72D
:100B8000000091CF90E19093E00150CF289A90918E
:100B9000E00194FD13C0982F92959F709BB9299AFC
:100BA00095E09A95F1F70000299895E09A95F1F76C
:100BB0000000299A95ED9A95F1F700008BB9299AD2
:100BC00085E08A95F1F70000299895E09A95F1F76C
:100BD0000000299A85ED8A95F1F7000081E090E008
:100BE0000895CF93DF93EC014DE050E060E072E0B8
:100BF00082E092E00E94BE07D0930102C0930002FF
:100C00009881992331F1219605C09D30B1F09991D9
:100C10009923F9F09A30C9F74DE050E060E072E0B6
:100C200082E092E00E94BE07D0930102C0930002CE
:100C3000FE01319790819D3051F78DE0E2E0F2E0C6
:100C4000A0E0B2E001900D928A95E1F7999191119F
:100C5000E1CF80E0DF91CF910895EF92FF920F9363
:100C60001F93CF93DF93E82EF12CC701880F991FB4
:100C70009C012C5F3D4F7901D2E0F7011291029166
:100C80007F01C0E00115110541F40CC08A3051F01C
:100C90000E94C605CF5FC83259F0F80181918F01DB
:100CA0008111F4CF80E20E94C605CF5FC832D1F730
:100CB000D15019F7DF91CF911F910F91FF90EF90D5
:100CC000089581112AC08CE991E05F934F937F933F
:100CD0006F933F932F939F938F938EE991E09F9310
:100CE0008F9383EE91E09F938F930E94D00783EEC2
:100CF00091E00E94F10580E00E942D068FE39CE9BF
:100D00000197F1F700C000008DB79EB70C960FB6A3
:100D1000F8949EBF0FBE8DBF08958AE991E0D5CFAC
:100D2000CF93DF93CDB7DEB764970FB6F894DEBFED
:100D30000FBECDBF482F082E000C550B811121C0CE
:100D40002EEB31E05F938F933F932F9389EC91E0EB
:100D50009F938F938E010F5F1F4F1F930F930E94DE
:100D6000D007C8010E94F10580E00E942D0614B84A
:100D700017B81AB815B818B81BB880E090E00E94F0
:100D8000C30A2CEA31E0DECFCF93DF93CDB7DEB7D5
:100D900068970FB6F894DEBF0FBECDBF62E080E16A
:100DA0000E9404050E9479000E94EF06399A84B1DE
:100DB000886284B92D9A2A9A8E010F5F1F4F88E1AD
:100DC000F80111928A95E9F7C8010E94F80161E6DD
:100DD00076E0C8010E94E60080E00E9490067894C8
:100DE00083E08093800083E1809381008DE790E031
:100DF000909389008093880082E080936F0008952B
:100E00006091F7017091F8018091F9019091FA01D8
:100E1000089510928500109284001092F7011092AC
:100E2000F8011092F9011092FA0108951F920F92A1
:100E30000FB60F9211248F939F93AF93BF9380911E
:100E4000F7019091F801A091F901B091FA01019692
:100E5000A11DB11D8093F7019093F801A093F901B2
:100E6000B093FA01BF91AF919F918F910F900FBEF8
:100E70000F901F90189597FB072E16F4009407D03B
:100E800077FD09D00E94AA0707FC05D03EF4909593
:100E900081959F4F0895709561957F4F0895A1E2C8
:100EA0001A2EAA1BBB1BFD010DC0AA1FBB1FEE1FE4
:100EB000FF1FA217B307E407F50720F0A21BB30B2F
:100EC000E40BF50B661F771F881F991F1A9469F7AB
:100ED00060957095809590959B01AC01BD01CF0107
:100EE0000895052E97FB1EF400940E94880757FD75
:100EF00007D00E944F0707FC03D04EF40C948807DC
:100F000050954095309521953F4F4F4F5F4F089535
:100F100090958095709561957F4F8F4F9F4F089565
:100F2000A29FB001B39FC001A39F700D811D11242A
:100F3000911DB29F700D811D1124911D08950E9475
:100F40009007A59F900DB49F900DA49F800D911DBB
:100F500011240895AA1BBB1B51E107C0AA1FBB1F88
:100F6000A617B70710F0A61BB70B881F991F5A9535
:100F7000A9F780959095BC01CD0108956817790770
:100F800068F4FB01DC01E40FF51FA40FB51F02C0DC
:100F900002900E9241505040D8F708950C94DE090B
:100FA000AEE0B0E0E6EDF7E00C949A0A0D891E89F8
:100FB00086E08C831A8309838FEF9FE79E838D835E
:100FC000AE01475E5F4F6F89788DCE0101960E941A
:100FD000F207EF81F885E00FF11F10822E96E4E012
:100FE0000C94B60AABE0B0E0E8EFF7E00C948C0AA2
:100FF0006C017B018A01FC0117821682838181FFCB
:10100000CCC1CE0101963C01F6019381F70193FD1D
:10101000859193FF81917F01882309F4BAC18532BC
:1010200039F493FD859193FF81917F01853229F4F5
:10103000B60190E00E94F209E7CF912C212C312CCF
:10104000FFE1F315D8F08B3279F038F4803279F083
:101050008332A1F4232D20611DC08D3261F08033D5
:1010600069F4232D216016C0832D8260382EE32D74
:10107000E4603E2E2AC0F32DF8601DC037FC2DC061
:1010800020ED280F2A3040F08E32B9F436FC81C1B1
:10109000232D2064322E19C036FE06C08AE0989EA9
:1010A000200D1124922E11C0EAE02E9E200D112455
:1010B000222EF32DF0623F2E08C08C3621F4832DB2
:1010C0008068382E02C0883641F4F70193FD85917F
:1010D00093FF81917F018111B3CF982F9F7D95540C
:1010E000933028F40C5F1F4F9FE399830DC0833624
:1010F00031F0833771F0833509F059C021C0F80110
:10110000808189830E5F1F4F88248394912C530123
:1011100013C02801F2E04F0E511CF801A080B180ED
:1011200036FE03C0692D70E002C06FEF7FEFC5018E
:101130000E94E7094C018201F32DFF773F2E16C074
:10114000280122E0420E511CF801A080B18036FE39
:1011500003C0692D70E002C06FEF7FEFC5010E94F0
:10116000D3094C01F32DF0683F2E820133FC1BC0E4
:10117000822D90E088169906B0F4B60180E290E0E6
:101180000E94F2092A94F4CFF50137FC859137FECD
:1011900081915F01B60190E00E94F20921102A942A
:1011A00021E0821A91088114910471F7E8C0843615
:1011B00011F0893641F5F80137FE07C06081718171
:1011C000828193810C5F1F4F08C060817181072E5F
:1011D000000C880B990B0E5F1F4FF32DFF763F2EEF
:1011E00097FF09C090958095709561957F4F8F4FBF
:1011F0009F4FF0683F2E2AE030E0A3010E942E0AA4
:10120000882E861845C0853731F4232D2F7EB22EC7
:101210002AE030E025C0932D997FB92E8F36C1F09A
:1012200018F4883579F0B5C0803719F0883721F087
:10123000B0C0E92FE061BE2EB4FE0DC0FB2DF460FE
:10124000BF2E09C034FE0AC0292F2660B22E06C068
:1012500028E030E005C020E130E002C020E132E0CB
:10126000F801B7FE07C060817181828193810C5FB4
:101270001F4F06C06081718180E090E00E5F1F4FBC
:10128000A3010E942E0A882E8618FB2DFF773F2E81
:1012900036FE0DC0232D2E7FA22E891458F434FE65
:1012A0000BC032FC09C0832D8E7EA82E05C0B82C41
:1012B000A32C03C0B82C01C0B92CA4FE0FC0FE01A2
:1012C000E80DF11D8081803321F49A2D997EA92E9D
:1012D00009C0A2FE06C0B394B39404C08A2D8678D8
:1012E00009F0B394A3FC11C0A0FE06C0B21488F4A8
:1012F000280C922C9B180EC0B21460F4B60180E248
:1013000090E00E94F209B394F7CFB21418F42B18AE
:1013100002C0982C212CA4FE10C0B60180E390E0FE
:101320000E94F209A2FE17C0A1FC03C088E790E06A
:1013300002C088E590E0B6010CC08A2D867859F08D
:10134000A1FE02C08BE201C080E2A7FC8DE2B601E3
:1013500090E00E94F209891438F4B60180E390E02D
:101360000E94F2099A94F7CF8A94F301E80DF11DD7
:101370008081B60190E00E94F2098110F5CF222011
:1013800009F442CEB60180E290E00E94F2092A946C
:10139000F6CFF6018681978102C08FEF9FEF2B96E3
:1013A000E2E10C94A80AFC01059061507040011024
:1013B000D8F7809590958E0F9F1F0895FB01DC0153
:1013C00002C001900D9241505040D8F70895FC01A1
:1013D0006150704001900110D8F7809590958E0F64
:1013E0009F1F08950F931F93CF93DF93FB012381DA
:1013F00021FD03C08FEF9FEF2CC022FF16C0468156
:101400005781248135814217530744F4A081B1816B
:101410009D012F5F3F4F318320838C93268137813D
:101420002F5F3F4F3783268314C08B01EC01FB01F4
:101430000084F185E02D0995892BE1F6D8011696F7
:101440008D919C911797019617969C938E93169762
:10145000CE01DF91CF911F910F910895FA01AA2734
:10146000283051F1203181F1E8946F936E7F6E5FE7
:101470007F4F8F4F9F4FAF4FB1E03ED0B4E03CD095
:10148000670F781F891F9A1FA11D680F791F8A1F78
:10149000911DA11D6A0F711D811D911DA11D20D0DF
:1014A00009F468943F912AE0269F11243019305D99
:1014B0003193DEF6CF010895462F4770405D41938A
:1014C000B3E00FD0C9F7F6CF462F4F70405D4A33D7
:1014D00018F0495D31FD4052419302D0A9F7EACF9F
:1014E000B4E0A6959795879577956795BA95C9F7CE
:1014F00000976105710508959B01AC010A2E0694C1
:101500005795479537952795BA95C9F7620F731F79
:10151000841F951FA01D08952F923F924F925F92B6
:101520006F927F928F929F92AF92BF92CF92DF92F3
:10153000EF92FF920F931F93CF93DF93CDB7DEB758
:10154000CA1BDB0B0FB6F894DEBF0FBECDBF0994EC
:101550002A88398848885F846E847D848C849B8443
:10156000AA84B984C884DF80EE80FD800C811B8151
:10157000AA81B981CE0FD11D0FB6F894DEBF0FBE80
:0A158000CDBFED010895F894FFCFF0
:10158A000153656C65637420616E206F7074696FB6
:10159A006E3A0A3E5365742072616D702054656D0F
:1015AA00702E2E2E0A205365742054656D702E2ECF
:1015BA002E0A2043206F7220462E2E2E0A205374A4
:1015CA006172742E2E2E00456E746572202A432F86
:1015DA00533A00456E746572202A462F533A0045E5
:1015EA006E7465722054696D6520533A00456E74B5
:1015FA0065722054656D70202A433A00456E746501
:10160A00722054656D70202A463A0025730A2575A2
:10161A000025730A25642E25750073007200257350
:10162A002025750A2025752C2025750050726F67B4
:10163A0072616D206661696C65642E2E2E00537589
:10164A006363657373212121002573200A45786934
:0C165A007420636F64653A202564000072
:00000001FF
