S00C00006F76656E2E7372656360
S11300000C945A000C9477000C9477000C947700AD
S11300100C9477000C9477000C9477000C94770080
S11300200C9477000C9477000C9477000C943908A6
S11300300C9477000C9477000C9477000C94770060
S11300400C9477000C9477000C9477000C94770050
S11300500C9477000C9477000C9477000C94770040
S11300600C9477000C9477000C9477000C94770030
S11300700C9477000C9477000C9477000C94770020
S11300800C9477000C9477000C9477000C94770010
S11300900C9477000C9477000C9477000C94770000
S11300A00C9477000C9477000C9477000C947700F0
S11300B00C94770011241FBECFEFD8E0DEBFCDBF74
S11300C012E0A0E0B1E0E0EFF7E102C005900D928C
S11300D0A033B107D9F722E0A0E3B2E001C01D923A
S11300E0A237B207E1F70E94E6070C94F60B0C94D2
S11300F00000ECE7F0E0808180648083EAE7F0E0D0
S113010080818268808308951B9B02C01C9913C060
S11301101B990CC01B9BFECF1C9BFCCF88E893E172
S11301200197F1F781E008951C9907C01B99FCCF52
S11301301B9BFCCFF9CF80E0089588E893E10197F9
S1130140F1F78FEF08950F931F93CF930E942C081C
S1130150C0E008E813E10E942308633271058105B9
S11301609105B0F41B9B02C01C9920C01B9919C0B7
S11301701B9BFECF1C9BFCCFC8010197F1F781E0CC
S1130180C80F0E942308633271058105910550F35D
S113019081E0C230A4F0CF911F910F9108951C9972
S11301A008C01B99FCCF1B9BFCCFF9CF80E0C80F84
S11301B0E8CFC8010197F1F78FEFC80FE2CFCF3F27
S11301C00CF080E08195CF911F910F9108950F93CA
S11301D01F9345988FE99FE00197F1F700C0000055
S11301E030E280E090E0DC014AE0729A242F2A9504
S11301F0F1F7880F991FAA1FBB1F26B12295217002
S1130200822B7298242F2A95F1F7315071F7EFE978
S1130210FFE03197F1F700C00000459AEFE9FFE0F5
S11302203197F1F700C000008C019D0142E1369541
S11302302795179507954A95D1F7109333020093A4
S113024032028C019D0154E0369527951795079548
S11302505A95D1F71F7010933102009330028A2F00
S113026081701F910F9108950E94E70080913202DE
S11302709091330208952F923F924F925F926F9222
S11302807F928F929F92AF92BF92CF92DF92EF9222
S1130290FF920F931F93CF93DF9300D000D0CDB77D
S11302A0DEB76B019C838B838A969A83898344EFA0
S11302B0442E55245394612C712C52E3252E312C59
S11302C0EB81FC818081882309F464C00E942C089E
S11302D0EB81FC8123813481A8EEB3E00E94C30842
S11302E04B015C0110C0801B910B069708F04298EB
S11302F0EB81FC812081318142815381648175814C
S11303008681F60109950E942308681579058A05F6
S11303109B05C0F4EB81FC8101811281000F111F48
S1130320000F111F0E94E700809132029091330266
S113033008171907C0F2081B190B06301105C0F283
S1130340429AD6CF2B813C81295F3F4F3C832B833C
S113035089819A818217930709F0B2CF429880E08D
S113036090E00197F1F70F900F900F900F90DF91AD
S1130370CF911F910F91FF90EF90DF90CF90BF909E
S1130380AF909F908F907F906F905F904F903F9031
S11303902F9008950E94E7000091320210913302D9
S11303A00E942C08EB81FC8181819281892B09F0C8
S11303B060C023813481A8EEB3E00E94C3084B01DE
S11303C05C010BC0EB81FC8120813181428153812E
S11303D0648175818681F60109950E942308681558
S11303E079058A059B0508F0ADCFEB81FC81E5809A
S11303F0F6800E942308A30192010E9482086531BD
S1130400710581059105F0F60E94E700C701B1016D
S11304100E946E08060F171F8091320290913302DA
S11304208017910708F047C0429A80E29EE4019742
S1130430F1F7C8CF0E94E700C701B1010E946E081E
S1130440060F171F80913202909133028017910793
S113045080F5429A80E29EE40197F1F7EB81FC81FA
S11304602081318142815381648175818681F601C5
S113047009950E94E700809132029091330296958B
S1130480879596958795EB81FC812181328182172E
S1130490930708F057CFE580F6800E942308A30154
S11304A092010E9482086531710581059105B0F6BB
S11304B0C1CF4298CFCF4298B8CFCF92DF92FF926C
S11304C00F931F93CF93DF93EC018C01065D1F4FB5
S11304D0F9E0CF2ED12CFF24F39465E081E091E084
S11304E00E942303813009F477C008F443C08230AA
S11304F099F0833049F4809100018F2580930001A5
S11305002796C017D10749F7DF91CF911F910F911B
S1130510FF90DF90CF900895F8824AE050E060EFBA
S113052070E081E991E00E94AC039C838B8380910D
S11305300001811176C047ED50E065E773E08AE67B
S113054091E00E94AC039C01220F331F220F331F42
S1130550820F931F9C01205A3109AFE8B3EE0E9429
S1130560C3089695879596958795969587959A83CA
S11305708983C6CF18828091000181115BC047ED49
S113058050E065E773E08AE691E00E94AC039C01C9
S1130590220F331F220F331F820F931F9C01205AF7
S11305A03109AFE8B3EE0E94C308969587959695F6
S11305B08795969587959A8389838091000122E097
S11305C08823D1F04CE05EEF64EF71E089E791E0BD
S11305D00E945704BC0122C018824AE050E060EF38
S11305E070E081E991E00E94AC039C838B8380914D
S11305F0000122E08111E6CF4CE75CEF64E873E090
S113060085E891E00E9457049C01220F331F220FBA
S1130610331F820F931FB6010E946E087E836D8381
S11306206FCF44E650E06BED71E08BE591E00E9402
S1130630AC039DCF44E650E06BED71E08BE591E0B7
S11306400E94AC03B8CFAF92BF92CF92DF92EF92E9
S1130650FF920F931F93CF93DF938C01DD24DA94E1
S1130660D60E93B1D92FD47092FF56C0CD2DD0E0C1
S1130670E62EF12C20E2B22E3EE3C32E2BC0440F13
S1130680551FFA01EC5AFD4F0190F081E02DB08224
S1130690620F731F4091530250E0641775070CF00A
S11306A055C077FD53C0D80F2D2F0D2E000C330BE2
S11306B0A20FB31FAA0FBB1FAC5ABD4FED91FC9103
S11306C0C082C8010E94E606AC2E8C2F0E9422072D
S11306D01A9B23C00E94A300882399F3AC2F0C2EED
S11306E0000CBB0B2D2F0D2E000C330BAD01420F54
S11306F0531F682F082E000C770BFA01E60FF71F23
S1130700F7FDDFCFEE15FF050CF4B9CFEE15FF05AD
S1130710C1F6CD2DD0E0D5CFAD2C1A9BFECF2FEF57
S113072085EA9EE0215080409040E1F700C000003F
S11307308D2D8D1B8A19DF91CF911F910F91FF9001
S1130740EF90DF90CF90BF90AF900895C80FAC2F7B
S11307500C2E000CBB0BACCF2F923F924F925F92AA
S11307606F927F928F929F92AF92BF92CF92DF92BD
S1130770EF92FF920F931F93CF93DF93CDB7DEB722
S113078066970FB6F894DEBF0FBECDBF9E012F5FF4
S11307903F4F690124E1F60111922A95E9F71A9B6A
S11307A083C01A014B019E8B8D8BA12CB12C841A12
S11307B0950AA108B108E12CF12C34E6432E512C02
S11307C0612C712C2CC01E141F040CF442C020E0B8
S11307D030E0E12CF12C8101020F131F1F930F93C2
S11307E02E892F933D893F938FE991E09F938F93B7
S11307F0DF92CF920E940309C6010E94E60680E0C0
S11308000E9422078FE39CE90197F1F700C00000E2
S11308100FB6F894DEBF0FBECDBF1A9B20C00E9456
S11308208400E80EF11C87FDFA94F4E6EF16F10457
S113083054F264E670E080E090E024E6E22EF12CCD
S1130840A50194010E945E08A30192010E94A408DC
S1130850C2CFB7010F2C000C880B990BF1CFC80144
S11308601A9BFECFFFEF25EA3EE0F15020403040D6
S1130870E1F700C0000066960FB6F894DEBF0FBE25
S1130880CDBFDF91CF911F910F91FF90EF90DF903B
S1130890CF90BF90AF909F908F907F906F905F901C
S11308A04F903F902F90089580E090E0D9CF2F9201
S11308B03F924F925F926F927F928F929F92AF92EC
S11308C0BF92CF92DF92EF92FF920F931F93CF9339
S11308D0DF93CDB7DEB768970FB6F894DEBF0FBECF
S11308E0CDBFFE0131961F0134E111923A95E9F72B
S11308F0222309F4C4C030E001E010E0F801EE0F57
S1130900FF1FEE0FFF1F0E0F1F1F000F111F3F5F72
S11309102313F4CF1A9B6FC05E8B4D8B4B01988FC2
S11309208F8B092C000CAA08BB08CA01550FAA0B0F
S1130930BB0B881A990AAA0ABB0AC12CD12C44E61B
S1130940442E512C612C712C43C026EBC2162FEF80
S1130950D2060CF097C067EE7FEF8FEF9FEF25EB89
S1130960C22EDD24DA94A50194010E945E08A3013D
S113097092010E94A408ED88FE88E20EF31EF7FCA3
S113098061C0C701B8010E946E089F938F937F9343
S11309906F93988D9F93EF89EF932FEA31E03F9304
S11309A02F933F922F920E9403090FB6F894DEBF53
S11309B00FBECDBFC1010E94E60680E00E9422075F
S11309C08FE39CE90197F1F700C000001A9B15C062
S11309D00E948400C80ED11C87FDDA94FBE4CF1674
S11309E0D1040CF4B2CF6DE770E080E090E03BE41A
S11309F0C32ED12CB8CFE12CF12C1A9BFECF9FEF44
S1130A00E5EAFEE09150E040F040E1F700C000006C
S1130A10C70168960FB6F894DEBF0FBECDBFDF9155
S1130A20CF911F910F91FF90EF90DF90CF90BF90E7
S1130A30AF909F908F907F906F905F904F903F907A
S1130A402F900895882799278E199F09B8010E942D
S1130A506E089F938F937F936F93388D3F938F8905
S1130A608F93E5EAF1E0FF93EF933F922F920E9478
S1130A7003090FB6F894DEBF0FBECDBF9BCF01E0D4
S1130A8010E048CFC6010D2C000CAA0BBB0BBC0117
S1130A90CD016E5C7F4F8F4F9F4F65CF299890910A
S1130AA0340294FD43C0982F92959F70292F217092
S1130AB09695392F3170220F232B9695392F31704B
S1130AC0220F232B9695220F922B9BB9289A95E0FF
S1130AD09A95F1F70000289895E09A95F1F70000AF
S1130AE0289A95ED9A95F1F70000982F91708695C4
S1130AF0282F2170990F922B8695282F2170990FFA
S1130B00922B86958170990F892B8BB9289A85E051
S1130B108A95F1F70000289895E09A95F1F700007E
S1130B20289A85ED8A95F1F700000895982F917021
S1130B308695990F282F2170922B8695990F282F2F
S1130B402170922B8695990F282F2170922B8695D0
S1130B50990F282F2170922B8695990F282F217099
S1130B60922B8695282F2170990F922B8695CBCFA7
S1130B709EE0E4E5F2E0DF011D929A95E9F79FEF2C
S1130B809AB994B1936094B9623008F4AFC098E113
S1130B90909334026093530210924F0290E4909326
S1130BA050028093510290E0805C9F4F80935202E8
S1130BB08FEF8AB984B1836084B91BB885B18C7F07
S1130BC085B9BFEFE0E7F2E0B150E040F040E1F773
S1130BD000C000008091340284FF33C080620E9410
S1130BE04E05EFE4F6E43197F1F700C00000809180
S1130BF0340280620E944E0587E592E00197F1F786
S1130C0000C000008091340280620E944E058091F1
S1130C10340280620E944E0584E0809336028CE0A8
S1130C200E944E0581E00E944E05AFE3BFE111979B
S1130C30F1F700C0000082E08093350286E00C9456
S1130C404E058CE08BB9289A25E02A95F1F700002F
S1130C50289895E09A95F1F70000289AA5EDAA95B1
S1130C60F1F70000EFE4F6E43197F1F700C000007B
S1130C708BB9289AF5E0FA95F1F70000289825E059
S1130C802A95F1F70000289A95ED9A95F1F700005E
S1130C90AFE4B6E41197F1F700C000008BB9289ACD
S1130CA0B5E0BA95F1F700002898E5E0EA95F1F788
S1130CB00000289AF5EDFA95F1F7000087E592E037
S1130CC00197F1F700C0000084E08BB9289A95E001
S1130CD09A95F1F700002898A5E0AA95F1F700008D
S1130CE0289AB5EDBA95F1F7000091CF90E1909371
S1130CF0340250CF299A9091340294FD45C0982F24
S1130D0092959F70292F21709695392F3170220F5B
S1130D10232B9695392F3170220F232B9695220F72
S1130D20922B9BB9289A95E09A95F1F700002898A0
S1130D3095E09A95F1F70000289A95ED9A95F1F7C8
S1130D400000982F91708695282F2170990F922B6F
S1130D508695282F2170990F922B86958170990F73
S1130D60892B8BB9289A85E08A95F1F70000289899
S1130D7095E09A95F1F70000289A85ED8A95F1F7A8
S1130D80000081E090E00895982F91708695990F66
S1130D90282F2170922B8695990F282F2170922B42
S1130DA08695990F282F2170922B8695990F282FBD
S1130DB02170922B8695990F282F2170922B86955E
S1130DC0282F2170990F922B8695C9CFCF93DF934B
S1130DD0EC014DE050E064E572E086E592E00E94AB
S1130DE0F108D0935502C09354029881992331F1AC
S1130DF0219605C09D30B1F099919923F9F09A306C
S1130E00C9F74DE050E064E572E086E592E00E94A7
S1130E10F108D0935502C0935402FE01319790819A
S1130E209D3051F78DE0E6E5F2E0A4E5B2E00190F3
S1130E300D928A95E1F799919111E1CF80E0DF91CC
S1130E40CF910895EF92FF920F931F93CF93DF9367
S1130E50E82EF12CC701880F991F9C01285A3D4F99
S1130E607901D2E0F701129102917F01C0E00115EE
S1130E70110541F40CC08A3051F00E947A06CF5F0C
S1130E80C83259F0F80181918F018111F4CF80E2C9
S1130E900E947A06CF5FC832D1F7D15019F7DF919B
S1130EA0CF911F910F91FF90EF900895CF92DF9211
S1130EB0EF92FF920F931F93CF93DF93CDB7DEB7DB
S1130EC027970FB6F894DEBF0FBECDBF29833A83B0
S1130ED04B835C836D837E838F83EA80FB800C81EC
S1130EE01D81211158C0DE80CF80E114F10409F086
S1130EF043C00E9434017C010E942308CF92DF92F8
S1130F00970136952795369527953F932F9328EE8D
S1130F1033E040E050E00E948208021B130B1F9351
S1130F200F9388EE91E09F938F9387E392E09F93D2
S1130F308F930E9403090FB6F894DEBF0FBECDBF96
S1130F4087E392E00E94E60680E00E9422078FE396
S1130F509CE90197F1F700C0000027960FB6F894BA
S1130F60DEBF0FBECDBFDF91CF911F910F91FF90D8
S1130F70EF90DF90CF9008950E943401FF92EF929A
S1130F8096958795969587959F938F93CF92DF92A9
S1130F9080ED91E0C8CF0E9434016C010E942308C7
S1130FA0FF92EF92960136952795369527953F93B4
S1130FB02F9328EE33E040E050E00E948208021BA9
S1130FC0130B1F930F9388EB91E0ADCFCF93DF9377
S1130FD0CDB7DEB7AA970FB6F894DEBF0FBECDBF6C
S1130FE062E080E10E94B8050E9479000E94120824
S1130FF03A9A3D9A6A9A2A9A85B1886185B98E018E
S11310000F5F1F4F8AE2F82EF8018F2D11928A95F7
S1131010E9F7C8010E945D0266E577E0C8010E9415
S11310203B01F2CF789483E08093800083E1809346
S113103081008DE790E0909389008093880082E09E
S113104080936F00089560914B0270914C028091DF
S11310504D0290914E0208951092850010928400E2
S113106010924B0210924C0210924D0210924E02BA
S113107008951F920F920FB60F9211248F939F938E
S1131080AF93BF9380914B0290914C02A0914D027B
S1131090B0914E020196A11DB11D80934B02909315
S11310A04C02A0934D02B0934E02BF91AF919F9119
S11310B08F910F900FBE0F901F901895DB018F93A7
S11310C09F930E94D208BF91AF91A29F800D911D62
S11310D0A39F900DB29F900D1124089597FB072EA6
S11310E016F4009407D077FD09D00E94DD0807FCB0
S11310F005D03EF4909581959F4F08957095619524
S11311007F4F0895A1E21A2EAA1BBB1BFD010DC03F
S1131110AA1FBB1FEE1FFF1FA217B307E407F507A3
S113112020F0A21BB30BE40BF50B661F771F881F7F
S1131130991F1A9469F760957095809590959B0115
S1131140AC01BD01CF010895052E97FB1EF4009458
S11311500E94BB0857FD07D00E94820807FC03D0F9
S11311604EF40C94BB0850954095309521953F4F13
S11311704F4F5F4F089590958095709561957F4F7F
S11311808F4F9F4F0895A29FB001B39FC001A39FAB
S1131190700D811D1124911DB29F700D811D1124AC
S11311A0911D08950E94C308A59F900DB49F900DB2
S11311B0A49F800D911D11240895AA1BBB1B51E10E
S11311C007C0AA1FBB1FA617B70710F0A61BB70BB3
S11311D0881F991F5A95A9F780959095BC01CD0158
S11311E008956817790768F4FB01DC01E40FF51F23
S11311F0A40FB51F02C002900E9241505040D8F780
S113120008950C94110BAEE0B0E0E9E0F9E00C9421
S1131210CD0B0D891E8986E08C831A8309838FEF99
S11312209FE79E838D83AE01475E5F4F6F89788D04
S1131230CE0101960E942509EF81F885E00FF11F88
S113124010822E96E4E00C94E90BABE0B0E0EBE204
S1131250F9E00C94BF0B6C017B018A01FC0117823D
S11312601682838181FFCCC1CE0101963C01F60137
S11312709381F70193FD859193FF81917F018823E9
S113128009F4BAC1853239F493FD859193FF8191B4
S11312907F01853229F4B60190E00E94250BE7CF47
S11312A0912C212C312CFFE1F315D8F08B3279F0FD
S11312B038F4803279F08332A1F4232D20611DC0EB
S11312C08D3261F0803369F4232D216016C0832DA3
S11312D08260382EE32DE4603E2E2AC0F32DF860A0
S11312E01DC037FC2DC020ED280F2A3040F08E326F
S11312F0B9F436FC81C1232D2064322E19C036FE88
S113130006C08AE0989E200D1124922E11C0EAE0B6
S11313102E9E200D1124222EF32DF0623F2E08C0A4
S11313208C3621F4832D8068382E02C0883641F42F
S1131330F70193FD859193FF81917F018111B3CFD3
S1131340982F9F7D9554933028F40C5F1F4F9FE393
S113135099830DC0833631F0833771F0833509F0FA
S113136059C021C0F801808189830E5F1F4F8824F2
S11313708394912C530113C02801F2E04F0E511CA9
S1131380F801A080B18036FE03C0692D70E002C070
S11313906FEF7FEFC5010E941A0B4C018201F32D00
S11313A0FF773F2E16C0280122E0420E511CF8019F
S11313B0A080B18036FE03C0692D70E002C06FEFDB
S11313C07FEFC5010E94060B4C01F32DF0683F2E00
S11313D0820133FC1BC0822D90E088169906B0F47C
S11313E0B60180E290E00E94250B2A94F4CFF50127
S11313F037FC859137FE81915F01B60190E00E9430
S1131400250B21102A9421E0821A91088114910459
S113141071F7E8C0843611F0893641F5F80137FEDA
S113142007C060817181828193810C5F1F4F08C066
S113143060817181072E000C880B990B0E5F1F4F82
S1131440F32DFF763F2E97FF09C0909580957095F8
S113145061957F4F8F4F9F4FF0683F2E2AE030E019
S1131460A3010E94610B882E861845C0853731F48C
S1131470232D2F7EB22E2AE030E025C0932D997FB4
S1131480B92E8F36C1F018F4883579F0B5C080379D
S113149019F0883721F0B0C0E92FE061BE2EB4FE08
S11314A00DC0FB2DF460BF2E09C034FE0AC0292FE5
S11314B02660B22E06C028E030E005C020E130E00E
S11314C002C020E132E0F801B7FE07C060817181FB
S11314D0828193810C5F1F4F06C06081718180E01F
S11314E090E00E5F1F4FA3010E94610B882E8618A7
S11314F0FB2DFF773F2E36FE0DC0232D2E7FA22E0F
S1131500891458F434FE0BC032FC09C0832D8E7E3E
S1131510A82E05C0B82CA32C03C0B82C01C0B92C2C
S1131520A4FE0FC0FE01E80DF11D8081803321F47B
S11315309A2D997EA92E09C0A2FE06C0B394B39435
S113154004C08A2D867809F0B394A3FC11C0A0FED0
S113155006C0B21488F4280C922C9B180EC0B21446
S113156060F4B60180E290E00E94250BB394F7CFBB
S1131570B21418F42B1802C0982C212CA4FE10C00D
S1131580B60180E390E00E94250BA2FE17C0A1FCE7
S113159003C088E790E002C088E590E0B6010CC083
S11315A08A2D867859F0A1FE02C08BE201C080E248
S11315B0A7FC8DE2B60190E00E94250B891438F453
S11315C0B60180E390E00E94250B9A94F7CF8A94A9
S11315D0F301E80DF11D8081B60190E00E94250B16
S11315E08110F5CF222009F442CEB60180E290E0CA
S11315F00E94250B2A94F6CFF6018681978102C0BA
S11316008FEF9FEF2B96E2E10C94DB0BFC0105902E
S1131610615070400110D8F7809590958E0F9F1FF0
S11316200895FB01DC0102C001900D92415050402D
S1131630D8F70895FC016150704001900110D8F76B
S1131640809590958E0F9F1F08950F931F93CF93AE
S1131650DF93FB01238121FD03C08FEF9FEF2CC09B
S113166022FF16C0468157812481358142175307D2
S113167044F4A081B1819D012F5F3F4F31832083CA
S11316808C93268137812F5F3F4F3783268314C085
S11316908B01EC01FB010084F185E02D0995892B78
S11316A0E1F6D80116968D919C911797019617969D
S11316B09C938E931697CE01DF91CF911F910F913A
S11316C00895FA01AA27283051F1203181F1E894D4
S11316D06F936E7F6E5F7F4F8F4F9F4FAF4FB1E021
S11316E03ED0B4E03CD0670F781F891F9A1FA11D1C
S11316F0680F791F8A1F911DA11D6A0F711D811D1D
S1131700911DA11D20D009F468943F912AE0269FE1
S113171011243019305D3193DEF6CF010895462F40
S11317204770405D4193B3E00FD0C9F7F6CF462F21
S11317304F70405D4A3318F0495D31FD405241938A
S113174002D0A9F7EACFB4E0A69597958795779547
S11317506795BA95C9F700976105710508959B01CE
S1131760AC010A2E06945795479537952795BA9557
S1131770C9F7620F731F841F951FA01D08952F9230
S11317803F924F925F926F927F928F929F92AF920D
S1131790BF92CF92DF92EF92FF920F931F93CF935A
S11317A0DF93CDB7DEB7CA1BDB0B0FB6F894DEBFF1
S11317B00FBECDBF09942A88398848885F846E8417
S11317C07D848C849B84AA84B984C884DF80EE8061
S11317D0FD800C811B81AA81B981CE0FD11D0FB66A
S11317E0F894DEBF0FBECDBFED010895F894FFCF8E
S11317F00153656C65637420616E206F7074696F4A
S11318006E3A0A3E5365742074617267657420747D
S1131810656D702E2E2E0A205365742072697365CF
S11318202074696D652E2E2E0A205365742074650C
S11318306D702E2E2E0A2043206F7220462E2E2EDF
S11318400A2053746172742E2E2E00456E746572D4
S11318502054656D70202A433A00456E74657220E9
S113186054656D70202A463A00456E746572202ACC
S1131870432F533A00456E746572202A462F533A1B
S113188000456E7465722054696D6520533A0025D5
S1131890730A25750025730A2D25752E25750025D7
S11318A0730A25752E25750053206C6566742025F2
S11318B0750A54656D70202575202D3E2025750010
S11318C0526973696E672025750A54656D70202509
S11318D075202D3E2025750053206C6566742025E7
S11318E0750A2054656D7020257520617420257556
S11318F00050726F6772616D206661696C65642E59
S11319002E2E0053756363657373212121002573A3
S1131910200A4578697420636F64653A2025640061
S9030000FC
