:100000000C945A000C9477000C9477000C947700B1
:100010000C9477000C9477000C9477000C94770084
:100020000C9477000C9477000C9477000C94D30711
:100030000C9477000C9477000C9477000C94770064
:100040000C9477000C9477000C9477000C94770054
:100050000C9477000C9477000C9477000C94770044
:100060000C9477000C9477000C9477000C94770034
:100070000C9477000C9477000C9477000C94770024
:100080000C9477000C9477000C9477000C94770014
:100090000C9477000C9477000C9477000C94770004
:1000A0000C9477000C9477000C9477000C947700F4
:1000B0000C94770011241FBECFEFD8E0DEBFCDBF78
:1000C00011E0A0E0B1E0E4E2F7E102C005900D929A
:1000D000A63EB107D9F722E0A6EEB1E001C01D921D
:1000E000A832B207E1F70E9480070C94900B0C94A1
:1000F0000000ECE7F0E0808180648083EAE7F0E0D4
:1001000080818268808308951B9B02C01C9913C064
:100110001B990CC01B9BFECF1C9BFCCF88E893E176
:100120000197F1F781E008951C9907C01B99FCCF56
:100130001B9BFCCFF9CF80E0089588E893E10197FD
:10014000F1F78FEF08950F931F93CF930E94C60787
:10015000C0E008E813E10E94BD0763327105810524
:100160009105B0F41B9B02C01C9920C01B9919C0BB
:100170001B9BFECF1C9BFCCFC8010197F1F781E0D0
:10018000C80F0E94BD07633271058105910550F3C8
:1001900081E0C230A4F0CF911F910F9108951C9976
:1001A00008C01B99FCCF1B9BFCCFF9CF80E0C80F88
:1001B000E8CFC8010197F1F78FEFC80FE2CFCF3F2B
:1001C0000CF080E08195CF911F910F9108950F93CE
:1001D0001F9345988FE99FE00197F1F700C0000059
:1001E00030E280E090E0DC014AE0729A242F2A9508
:1001F000F1F7880F991FAA1FBB1F26B12295217006
:10020000822B7298242F2A95F1F7315071F7EFE97C
:10021000FFE03197F1F700C00000459AEFE9FFE0F9
:100220003197F1F700C000008C019D0142E1369545
:100230002795179507954A95D1F71093E9010093F3
:10024000E8018C019D0154E0369527951795079597
:100250005A95D1F71F701093E7010093E6018A2F9A
:1002600081701F910F9108952F923F924F925F924C
:100270006F927F928F929F92AF92BF92CF92DF92B6
:10028000EF92FF920F931F93CF93DF9300D000D094
:1002900000D0CDB7DEB77A8369831C019C01225E52
:1002A0003F4F3C832B83A8EE8A2EA3E09A2EA12CED
:1002B000B12CF10181819281892B09F461C0808187
:1002C000882309F476C00E94C607F10183819481D6
:1002D00028EE33E0829F6001839FD00C929FD00C68
:1002E0001124E12CF12C10C0CB01841B950B069737
:1002F00008F0429876956795769567959201A801E2
:1003000081E0E981FA8109950E94BD076C157D05A0
:100310008E059F0560F50E94BD07A7019601261B6B
:10032000370B480B590BCA01B901A50194010E9472
:100330001C0829013A01F101018112819801220F63
:10034000331F220F331F3E832D830E94E7006091ED
:10035000E8017091E9014D815E814617570720F24F
:10036000CA01861B970B069728F2429AC3CFF5E085
:100370002F0E311C2B813C812215330509F099CFBA
:1003800026960FB6F894DEBF0FBECDBFDF91CF919A
:100390001F910F91FF90EF90DF90CF90BF90AF90A3
:1003A0009F908F907F906F905F904F903F902F9095
:1003B00008950E94E7004091E8015091E9015E83B1
:1003C0004D830E94C607F1018381948128EE33E0BA
:1003D000829F6001839FD00C929FD00C1124E12C4E
:1003E000F12C09811A8121C00E94BD072B013C011B
:1003F0000E94E700C701B6016419750986099709CB
:10040000A50194010E941C086091E8017091E90126
:1004100076956795769567954D815E81569547955A
:100420005695479580E0F80109950E94BD076C1527
:100430007D058E059F0508F09ACF0E94BD0724EF29
:1004400031E040E050E00E941C08653171058105F3
:10045000910550F60E94E700F10121813281369525
:100460002795ABE7B4E10E945D08969587952D81AD
:100470003E81820F931F2091E8013091E9012817F6
:100480003907B8F4429AF1012181328136952795D6
:10049000ABE7B4E10E945D08969587952D813E817A
:1004A000280F391F3E832D8380E29EE40197F1F7E8
:1004B0009BCF4298E8CFDF92EF92FF920F931F936A
:1004C000CF93DF93EC018C01025E1F4F79E0E72EA2
:1004D000F12CDD24D39464E081E091E00E94EC02F1
:1004E0008130C9F198F0823049F4809100018D2566
:1004F000809300012596C017D10769F7DF91CF914E
:100500001F910F91FF90EF90DF90089518824AE0BD
:1005100050E060EF70E087E491E00E9475039C83F7
:100520008B838091000122E081114CC04CE75CEF8D
:1005300064E873E081E691E00E941E049C01220FB2
:10054000331F220F331F820F931FB7010E94080829
:100550007A836983CFCF88834AE050E060EF70E010
:1005600087E491E00E9475039C838B838091000156
:1005700081111FC047ED50E065E773E08CE791E023
:100580000E9475039C01220F331F220F331F820F1D
:10059000931F9C01205A3109AFE8B3EE0E945D0819
:1005A0009695879596958795969587959A8389834D
:1005B000A1CF44E650E06BED71E08DE691E00E9442
:1005C0007503F4CF4CE05EEF64EF71E085E591E0F8
:1005D0000E941E04BC01BCCFAF92BF92CF92DF92AB
:1005E000EF92FF920F931F93CF93DF938C01DD2443
:1005F000DA94D60E93B1D92FD47092FF56C0CD2D78
:10060000D0E0E62EF12C20E2B22E3EE3C32E2BC02A
:10061000440F551FFA01E65FFD4F0190F081E02D78
:10062000B082620F731F4091090250E06417750792
:100630000CF055C077FD53C0D80F2D2F0D2E000C98
:10064000330BA20FB31FAA0FBB1FA65FBD4FED91C7
:10065000FC91C082C8010E94AD06AC2E8C2F0E9476
:10066000E9061A9B23C00E94A300882399F3AC2FAC
:100670000C2E000CBB0B2D2F0D2E000C330BAD01DF
:10068000420F531F682F082E000C770BFA01E60F5C
:10069000F71FF7FDDFCFEE15FF050CF4B9CFEE1510
:1006A000FF05C1F6CD2DD0E0D5CFAD2C1A9BFECFE6
:1006B0002FEF85EA9EE0215080409040E1F700C096
:1006C00000008D2D8D1B8A19DF91CF911F910F9105
:1006D000FF90EF90DF90CF90BF90AF900895C80F3C
:1006E000AC2F0C2E000CBB0BACCF2F923F924F9235
:1006F0005F926F927F928F929F92AF92BF92CF92B2
:10070000DF92EF92FF920F931F93CF93DF93CDB7BA
:10071000DEB766970FB6F894DEBF0FBECDBF9E0161
:100720002F5F3F4F790124E1F70111922A95E9F7F4
:100730001A9B81C06A014B019E8B8D8BA12CB12C21
:10074000841A950AA108B10800E010E084E6482E5A
:10075000512C612C712C9BE8292E91E0392E28C058
:1007600010161106ECF120E030E000E010E02C0D56
:100770003D1D3F932F93FE89FF932D892F933F9229
:100780002F92FF92EF920E949D08C7010E94AD0632
:1007900080E00E94E9068FE39CE90197F1F700C031
:1007A00000000FB6F894DEBF0FBECDBF1A9B1EC06F
:1007B0000E948400080F111D87FD1A95043611054B
:1007C0007CF264E670E080E090E004E610E0A501D1
:1007D00094010E94F807A30192010E943E08C7CF2E
:1007E000B801012E000C880B990BF1CFC8011A9BA0
:1007F000FECFFFEF25EA3EE0F15020403040E1F728
:1008000000C0000066960FB6F894DEBF0FBECDBFE5
:10081000DF91CF911F910F91FF90EF90DF90CF90DC
:10082000BF90AF909F908F907F906F905F904F9010
:100830003F902F90089580E090E0D9CF2F923F9283
:100840004F925F926F927F928F929F92AF92BF92E0
:10085000CF92DF92EF92FF920F931F93CF93DF938C
:10086000CDB7DEB768970FB6F894DEBF0FBECDBF29
:10087000FE0131961F0134E111923A95E9F72223E6
:1008800009F4C4C030E001E010E0F801EE0FFF1FF2
:10089000EE0FFF1F0E0F1F1F000F111F3F5F2313CF
:1008A000F4CF1A9B6FC05E8B4D8B4B01988F8F8B53
:1008B000092C000CAA08BB08CA01550FAA0BBB0BD8
:1008C000881A990AAA0ABB0AC12CD12C44E6442EE4
:1008D000512C612C712C43C026EBC2162FEFD2068F
:1008E0000CF097C067EE7FEF8FEF9FEF25EBC22EE6
:1008F000DD24DA94A50194010E94F807A301920176
:100900000E943E08ED88FE88E20EF31EF7FC61C0EF
:10091000C701B8010E9408089F938F937F936F933C
:10092000988D9F93EF89EF932BE931E03F932F93BD
:100930003F922F920E949D080FB6F894DEBF0FBE23
:10094000CDBFC1010E94AD0680E00E94E9068FE3A1
:100950009CE90197F1F700C000001A9B15C00E94A6
:100960008400C80ED11C87FDDA94FBE4CF16D104B5
:100970000CF4B2CF6DE770E080E090E03BE4C32E72
:10098000D12CB8CFE12CF12C1A9BFECF9FEFE5EADA
:10099000FEE09150E040F040E1F700C00000C701E8
:1009A00068960FB6F894DEBF0FBECDBFDF91CF9132
:1009B0001F910F91FF90EF90DF90CF90BF90AF907D
:1009C0009F908F907F906F905F904F903F902F906F
:1009D0000895882799278E199F09B8010E94080851
:1009E0009F938F937F936F93388D3F938F898F93CE
:1009F000E1E9F1E0FF93EF933F922F920E949D086F
:100A00000FB6F894DEBF0FBECDBF9BCF01E010E064
:100A100048CFC6010D2C000CAA0BBB0BBC01CD01AD
:100A20006E5C7F4F8F4F9F4F65CF29989091EA0161
:100A300094FD43C0982F92959F70292F2170969511
:100A4000392F3170220F232B9695392F3170220FB9
:100A5000232B9695220F922B9BB9289A95E09A9575
:100A6000F1F70000289895E09A95F1F70000289A90
:100A700095ED9A95F1F70000982F91708695282FA3
:100A80002170990F922B8695282F2170990F922B08
:100A900086958170990F892B8BB9289A85E08A9564
:100AA000F1F70000289895E09A95F1F70000289A50
:100AB00085ED8A95F1F700000895982F917086953D
:100AC000990F282F2170922B8695990F282F21702E
:100AD000922B8695990F282F2170922B8695990F2E
:100AE000282F2170922B8695990F282F2170922BF9
:100AF0008695282F2170990F922B8695CBCF9EE05B
:100B0000EAE0F2E0DF011D929A95E9F79FEF9AB9CA
:100B100094B1936094B9623008F4AFC098E19093B7
:100B2000EA01609309021092050290E49093060294
:100B30008093070290E0805C9F4F809308028FEFC4
:100B40008AB984B1836084B91BB885B18C7F85B9BB
:100B5000BFEFE0E7F2E0B150E040F040E1F700C065
:100B600000008091EA0184FF33C080620E94150575
:100B7000EFE4F6E43197F1F700C000008091EA015C
:100B800080620E94150587E592E00197F1F700C0A9
:100B900000008091EA0180620E9415058091EA01BF
:100BA00080620E94150584E08093EC018CE00E9435
:100BB000150581E00E941505AFE3BFE11197F1F73C
:100BC00000C0000082E08093EB0186E00C941505E4
:100BD0008CE08BB9289A25E02A95F1F70000289837
:100BE00095E09A95F1F70000289AA5EDAA95F1F7FE
:100BF0000000EFE4F6E43197F1F700C000008BB994
:100C0000289AF5E0FA95F1F70000289825E02A9552
:100C1000F1F70000289A95ED9A95F1F70000AFE4FE
:100C2000B6E41197F1F700C000008BB9289AB5E03F
:100C3000BA95F1F700002898E5E0EA95F1F7000091
:100C4000289AF5EDFA95F1F7000087E592E0019713
:100C5000F1F700C0000084E08BB9289A95E09A95DE
:100C6000F1F700002898A5E0AA95F1F70000289A6E
:100C7000B5EDBA95F1F7000091CF90E19093EA01BC
:100C800050CF299A9091EA0194FD45C0982F9295F2
:100C90009F70292F21709695392F3170220F232BA9
:100CA0009695392F3170220F232B9695220F922B78
:100CB0009BB9289A95E09A95F1F70000289895E05D
:100CC0009A95F1F70000289A95ED9A95F1F70000B2
:100CD000982F91708695282F2170990F922B8695C9
:100CE000282F2170990F922B86958170990F892B4F
:100CF0008BB9289A85E08A95F1F70000289895E04D
:100D00009A95F1F70000289A85ED8A95F1F7000091
:100D100081E090E00895982F91708695990F282F83
:100D20002170922B8695990F282F2170922B8695F2
:100D3000990F282F2170922B8695990F282F2170BB
:100D4000922B8695990F282F2170922B8695282F0C
:100D50002170990F922B8695C9CFCF93DF93EC0129
:100D60004DE050E06AE072E08CE092E00E948B0877
:100D7000D0930B02C0930A029881992331F12196F6
:100D800005C09D30B1F099919923F9F09A30C9F7D7
:100D90004DE050E06AE072E08CE092E00E948B0847
:100DA000D0930B02C0930A02FE01319790819D30CF
:100DB00051F78DE0ECE0F2E0AAE0B2E001900D9294
:100DC0008A95E1F799919111E1CF80E0DF91CF9180
:100DD0000895EF92FF920F931F93CF93DF93E82E26
:100DE000F12CC701880F991F9C01225F3D4F7901AB
:100DF000D2E0F701129102917F01C0E001151105C7
:100E000041F40CC08A3051F00E944106CF5FC832D5
:100E100059F0F80181918F018111F4CF80E20E9495
:100E20004106CF5FC832D1F7D15019F7DF91CF918A
:100E30001F910F91FF90EF90089581112AC086EACB
:100E400091E05F934F937F936F933F932F939F9383
:100E50008F9388EA91E09F938F938DEE91E09F931B
:100E60008F930E949D088DEE91E00E94AD0680E078
:100E70000E94E9068FE39CE90197F1F700C00000AA
:100E80008DB79EB70C960FB6F8949EBF0FBE8DBF60
:100E9000089584EA91E0D5CFCF93DF93CDB7DEB745
:100EA00064970FB6F894DEBF0FBECDBF482F082E53
:100EB000000C550B811121C028EC31E05F938F931A
:100EC0003F932F9383ED91E09F938F938E010F5F5C
:100ED0001F4F1F930F930E949D08C8010E94AD06EB
:100EE00080E00E94E90614B817B81AB815B818B807
:100EF0001BB880E090E00E94900B26EB31E0DECF43
:100F0000CF93DF93CDB7DEB76E970FB6F894DEBF01
:100F10000FBECDBF62E080E10E947F050E94790094
:100F20000E94AC073A9A3D9A6A9A2A9A85B18861DA
:100F300085B98E010F5F1F4F8EE1F80111928A95DE
:100F4000E9F7C8010E945B026DE177E0C8010E94E9
:100F5000340180E00E944C07789483E08093800005
:100F600083E1809381008DE790E0909389008093E6
:100F7000880082E080936F00089560910102709173
:100F8000020280910302909104020895109285005C
:100F90001092840010920102109202021092030239
:100FA0001092040208951F920F920FB60F9211240F
:100FB0008F939F93AF93BF93809101029091020210
:100FC000A0910302B09104020196A11DB11D80936E
:100FD000010290930202A0930302B0930402BF9116
:100FE000AF919F918F910F900FBE0F901F9018950A
:100FF000DB018F939F930E946C08BF91AF91A29FDA
:10100000800D911DA39F900DB29F900D1124089506
:1010100097FB072E16F4009407D077FD09D00E94A5
:10102000770807FC05D03EF4909581959F4F089571
:10103000709561957F4F0895A1E21A2EAA1BBB1BE4
:10104000FD010DC0AA1FBB1FEE1FFF1FA217B30794
:10105000E407F50720F0A21BB30BE40BF50B661FAA
:10106000771F881F991F1A9469F76095709580956E
:1010700090959B01AC01BD01CF010895052E97FB12
:101080001EF400940E94550857FD07D00E941C08CA
:1010900007FC03D04EF40C945508509540953095BC
:1010A00021953F4F4F4F5F4F0895909580957095D4
:1010B00061957F4F8F4F9F4F0895A29FB001B39FBF
:1010C000C001A39F700D811D1124911DB29F700D51
:1010D000811D1124911D08950E945D08A59F900D0A
:1010E000B49F900DA49F800D911D11240895AA1BFB
:1010F000BB1B51E107C0AA1FBB1FA617B70710F003
:10110000A61BB70B881F991F5A95A9F78095909534
:10111000BC01CD0108956817790768F4FB01DC0173
:10112000E40FF51FA40FB51F02C002900E924150AC
:101130005040D8F708950C94AB0AAEE0B0E0E3EA73
:10114000F8E00C94670B0D891E8986E08C831A8366
:1011500009838FEF9FE79E838D83AE01475E5F4FCC
:101160006F89788DCE0101960E94BF08EF81F885C6
:10117000E00FF11F10822E96E4E00C94830BABE09D
:10118000B0E0E5ECF8E00C94590B6C017B018A01AE
:10119000FC0117821682838181FFCCC1CE010196AA
:1011A0003C01F6019381F70193FD859193FF8191B5
:1011B0007F01882309F4BAC1853239F493FD859102
:1011C00093FF81917F01853229F4B60190E00E945E
:1011D000BF0AE7CF912C212C312CFFE1F315D8F079
:1011E0008B3279F038F4803279F08332A1F4232DF8
:1011F00020611DC08D3261F0803369F4232D2160A0
:1012000016C0832D8260382EE32DE4603E2E2AC066
:10121000F32DF8601DC037FC2DC020ED280F2A30BB
:1012200040F08E32B9F436FC81C1232D2064322E79
:1012300019C036FE06C08AE0989E200D1124922E19
:1012400011C0EAE02E9E200D1124222EF32DF06213
:101250003F2E08C08C3621F4832D8068382E02C0C2
:10126000883641F4F70193FD859193FF81917F01C9
:101270008111B3CF982F9F7D9554933028F40C5F44
:101280001F4F9FE399830DC0833631F0833771F090
:10129000833509F059C021C0F801808189830E5F30
:1012A0001F4F88248394912C530113C02801F2E02E
:1012B0004F0E511CF801A080B18036FE03C0692D8D
:1012C00070E002C06FEF7FEFC5010E94B40A4C01CD
:1012D0008201F32DFF773F2E16C0280122E0420E37
:1012E000511CF801A080B18036FE03C0692D70E06A
:1012F00002C06FEF7FEFC5010E94A00A4C01F32DE1
:10130000F0683F2E820133FC1BC0822D90E08816CE
:101310009906B0F4B60180E290E00E94BF0A2A94D8
:10132000F4CFF50137FC859137FE81915F01B6015D
:1013300090E00E94BF0A21102A9421E0821A9108AD
:101340008114910471F7E8C0843611F0893641F5B3
:10135000F80137FE07C060817181828193810C5F43
:101360001F4F08C060817181072E000C880B990BFC
:101370000E5F1F4FF32DFF763F2E97FF09C090950C
:101380008095709561957F4F8F4F9F4FF0683F2EEE
:101390002AE030E0A3010E94FB0A882E861845C08F
:1013A000853731F4232D2F7EB22E2AE030E025C080
:1013B000932D997FB92E8F36C1F018F4883579F0C6
:1013C000B5C0803719F0883721F0B0C0E92FE0614F
:1013D000BE2EB4FE0DC0FB2DF460BF2E09C034FE3E
:1013E0000AC0292F2660B22E06C028E030E005C0D2
:1013F00020E130E002C020E132E0F801B7FE07C092
:1014000060817181828193810C5F1F4F06C0608172
:10141000718180E090E00E5F1F4FA3010E94FB0AE4
:10142000882E8618FB2DFF773F2E36FE0DC0232D0C
:101430002E7FA22E891458F434FE0BC032FC09C052
:10144000832D8E7EA82E05C0B82CA32C03C0B82CEB
:1014500001C0B92CA4FE0FC0FE01E80DF11D808172
:10146000803321F49A2D997EA92E09C0A2FE06C0D0
:10147000B394B39404C08A2D867809F0B394A3FC86
:1014800011C0A0FE06C0B21488F4280C922C9B1840
:101490000EC0B21460F4B60180E290E00E94BF0A70
:1014A000B394F7CFB21418F42B1802C0982C212C47
:1014B000A4FE10C0B60180E390E00E94BF0AA2FE25
:1014C00017C0A1FC03C088E790E002C088E590E067
:1014D000B6010CC08A2D867859F0A1FE02C08BE2BD
:1014E00001C080E2A7FC8DE2B60190E00E94BF0A35
:1014F000891438F4B60180E390E00E94BF0A9A9400
:10150000F7CF8A94F301E80DF11D8081B60190E0D8
:101510000E94BF0A8110F5CF222009F442CEB60105
:1015200080E290E00E94BF0A2A94F6CFF6018681FD
:10153000978102C08FEF9FEF2B96E2E10C94750B21
:10154000FC010590615070400110D8F7809590958E
:101550008E0F9F1F0895FB01DC0102C001900D92C8
:1015600041505040D8F70895FC01615070400190FF
:101570000110D8F7809590958E0F9F1F08950F93B7
:101580001F93CF93DF93FB01238121FD03C08FEFD6
:101590009FEF2CC022FF16C04681578124813581E0
:1015A0004217530744F4A081B1819D012F5F3F4F43
:1015B000318320838C93268137812F5F3F4F378380
:1015C000268314C08B01EC01FB010084F185E02D22
:1015D0000995892BE1F6D80116968D919C91179764
:1015E000019617969C938E931697CE01DF91CF911B
:1015F0001F910F910895FA01AA27283051F1203147
:1016000081F1E8946F936E7F6E5F7F4F8F4F9F4F96
:10161000AF4FB1E03ED0B4E03CD0670F781F891FD8
:101620009A1FA11D680F791F8A1F911DA11D6A0FA6
:10163000711D811D911DA11D20D009F468943F9159
:101640002AE0269F11243019305D3193DEF6CF0158
:101650000895462F4770405D4193B3E00FD0C9F71E
:10166000F6CF462F4F70405D4A3318F0495D31FD8B
:101670004052419302D0A9F7EACFB4E0A6959795DE
:10168000879577956795BA95C9F7009761057105B4
:1016900008959B01AC010A2E0694579547953795FE
:1016A0002795BA95C9F7620F731F841F951FA01D58
:1016B00008952F923F924F925F926F927F928F92F6
:1016C0009F92AF92BF92CF92DF92EF92FF920F93D1
:1016D0001F93CF93DF93CDB7DEB7CA1BDB0B0FB6DB
:1016E000F894DEBF0FBECDBF09942A883988488898
:1016F0005F846E847D848C849B84AA84B984C8842E
:10170000DF80EE80FD800C811B81AA81B981CE0F24
:10171000D11D0FB6F894DEBF0FBECDBFED01089509
:04172000F894FFCF6B
:101724000153656C65637420616E206F7074696F1A
:101734006E3A0A3E5365742072616D702054656D73
:10174400702E2E2E0A205365742054656D702E2E33
:101754002E0A2043206F7220462E2E2E0A20537408
:101764006172742E2E2E00456E7465722054696D5C
:101774006520533A00456E746572202A432F533A0C
:1017840000456E746572202A462F533A00456E74E4
:1017940065722054656D70202A433A00456E746565
:1017A400722054656D70202A463A0025730A257507
:1017B4000025730A2D25752E25750025730A2575B8
:1017C4002E2575007300720025732025750A2025C7
:1017D400752C2025750050726F6772616D206661EB
:1017E400696C65642E2E2E005375636365737321D3
:1017F4002121002573200A4578697420636F64658C
:061804003A2025640000FB
:00000001FF
