S00C00006F76656E2E7372656360
S11300000C945A000C9477000C9477000C947700AD
S11300100C9477000C9477000C9477000C94770080
S11300200C9477000C9477000C9477000C9486025F
S11300300C9477000C9477000C9477000C94770060
S11300400C9477000C9477000C9477000C94770050
S11300500C9477000C9477000C9477000C94770040
S11300600C9477000C9477000C9477000C94770030
S11300700C9477000C9477000C9477000C94770020
S11300800C9477000C9477000C9477000C94770010
S11300900C9477000C9477000C9477000C94770000
S11300A00C9477000C9477000C9477000C947700F0
S11300B00C94770011241FBECFEFD8E0DEBFCDBF74
S11300C011E0A0E0B1E0EAECF5E002C005900D9289
S11300D0AE30B107D9F721E0AEE0B1E001C01D9226
S11300E0A531B207E1F70E9415020C94E3020C94C7
S11300F00000CF93DF93AB01603127E2720738F140
S1130100C5E0D0E0FC01EC0FFD1F9A01ADECBCECA6
S11301100E94CD0296958795969587959695879595
S1130120BC01660F771F9C01220F331F220F331F60
S1130130220F331F260F371F421B530B405D429380
S1130140AC01892B11F7CE01DF91CF910895683E60
S113015023E0720718F0C4E0D0E0D4CF6436710510
S113016018F0C3E0D0E0CECF6A30710518F0C2E0D9
S1130170D0E0C8CFC1E0D0E0C5CFCF92DF92EF92FC
S1130180FF920F931F93CF934115510591F08A016C
S11301906B017C0120E030E0C0E0F601E20FF31FC8
S11301A08081F7010995CF5F2C2F30E020173107AC
S11301B0A0F3CF911F910F91FF90EF90DF90CF901C
S11301C00895CF92DF92EF92FF920F931F93CF93F4
S11301D0FB0101900020E9F731978F01061B170BF3
S11301E089F07B016C0120E030E0C0E0F701E20F10
S11301F0F31F8081F6010995CF5F2C2F30E0201783
S11302003107A0F3CF911F910F91FF90EF90DF90F2
S1130210CF90089582E880937A0010927B0008952D
S113022021E030E0082E01C0220F0A94EAF720935F
S11302307E008F70806480937C0080917A0080645B
S113024080937A0080917A0086FDFCCF80917800BB
S1130250909179000895623008F4ABC088E18093EE
S11302600E0184B1836084B98FEF8AB92FEF80E7E0
S113027092E0215080409040E1F700C0000085B139
S11302808C7F85B980910E01806228988BB929985A
S113029025E02A95F1F70000299A85E08A95F1F77F
S11302A0000029988FE891E00197F1F700C0000061
S11302B08FE19EE40197F1F700C0000080910E01E8
S11302C0806228988BB9299895E09A95F1F70000F7
S11302D0299A25E02A95F1F7000029988FE891E002
S11302E00197F1F700C0000087E592E00197F1F76C
S11302F000C0000080910E01806228988BB9299873
S113030095E09A95F1F70000299A25E02A95F1F7EE
S1130310000029988FE891E00197F1F700C00000F0
S113032084E08093100128988CE08BB9299895E09B
S11303309A95F1F70000299A25E02A95F1F7000033
S113034029988FE891E00197F1F700C00000289800
S113035081E08BB9299895E09A95F1F70000299AE4
S113036025E02A95F1F7000029988FE891E001979C
S1130370F1F700C000008FE39FE10197F1F700C09F
S1130380000082E080930F01289886E08BB92998B9
S113039095E09A95F1F70000299A25E02A95F1F75E
S11303A0000029988FE891E00197F1F700C0000060
S11303B0089580E180930E0154CF623001F16330DF
S11303C0D9F06130B9F090E0890F806828988BB932
S11303D0299885E08A95F1F70000299A95E09A9585
S11303E0F1F7000029988FE891E00197F1F700C038
S11303F00000089590E4E8CF90E4980FE5CF982F9B
S1130400E3CF289A8BB9299885E08A95F1F7000003
S1130410299A95E09A95F1F7000029988FE891E0E0
S11304200197F1F700C000000895CF93DF93CDB793
S1130430DEB760970FB6F894DEBF0FBECDBF62E0A3
S113044080E10E942B0160E071E081E092E00E9473
S1130450E1000E940A010E946E02789488EEC82E80
S113046083E0D82EE12CF12C1FED61E080E00E94A6
S1130470DD0140E150E06EEF70E0CE0101960E9494
S1130480DC020E947D02A70196010E94AB02B90121
S1130490CE0101960E94790021E030E02C0F3D1F2F
S11304A0820F931FFC01108380E00E941001BC01A5
S11304B0CE0107960E94790027E030E02C0F3D1F03
S11304C0820F931FFC01108340E150E0BE016F5F77
S11304D07F4F81E092E00E94BD00C7CFE1E8F0E0E9
S11304E080818960808380E89EE390938900809373
S11304F0880082E080936F000895609111017091EB
S11305001201809113019091140108951F920F928A
S11305100FB60F9211248F939F93AF93BF93809143
S1130520110190911201A0911301B091140101964F
S1130530A11DB11D8093110190931201A093130189
S1130540B0931401BF91AF919F918F910F900FBE03
S11305500F901F901895A1E21A2EAA1BBB1BFD0138
S11305600DC0AA1FBB1FEE1FFF1FA217B307E4078E
S1130570F50720F0A21BB30BE40BF50B661F771FE6
S1130580881F991F1A9469F76095709580959095C6
S11305909B01AC01BD01CF010895A29FB001B39F9F
S11305A0C001A39F700D811D1124911DB29F700D78
S11305B0811D1124911D0895DC0101C06D934150EA
S10D05C05040E0F70895F894FFCFCF
S11105CA48656C6C6F20776F726C64210000C2
S9030000FC
