S00C00006F76656E2E7372656360
S11300000C945A000C9477000C9477000C947700AD
S11300100C9477000C9477000C9477000C94770080
S11300200C9477000C9477000C9477000C94AC0239
S11300300C9477000C9477000C9477000C94770060
S11300400C9477000C9477000C9477000C94770050
S11300500C9477000C9477000C9477000C94770040
S11300600C9477000C9477000C9477000C94770030
S11300700C9477000C9477000C9477000C94770020
S11300800C9477000C9477000C9477000C94770010
S11300900C9477000C9477000C9477000C94770000
S11300A00C9477000C9477000C9477000C947700F0
S11300B00C94770011241FBECFEFD8E0DEBFCDBF74
S11300C011E0A0E0B1E0E0EBFBE002C005900D928E
S11300D0AA31B107D9F721E0AAE1B1E001C01D922C
S11300E0A834B207E1F70E9457020C94D6050C9489
S11300F00000ECE7F0E0808180648083EAE7F0E0D0
S113010080818268808308950F931F932D988FE9CF
S11301109FE00197F1F700C0000030E280E090E03A
S1130120DC014AE02B9A242F2A95F1F7880F991FB6
S1130130AA1FBB1F23B122952170822B2B98242F39
S11301402A95F1F7315071F7EFE9FFE03197F1F7B4
S113015000C000002D9AEFE9FFE03197F1F700C0ED
S113016000008C019D0142E136952795179507956E
S11301704A95D1F710931D0100931C018C019D0138
S113018054E036952795179507955A95D1F71F7022
S113019010931B0100931A018A2F81701F910F91F4
S11301A00895289890911E0194FD13C0982F92955C
S11301B09F709BB9299A95E09A95F1F700002998C8
S11301C095E09A95F1F70000299A95ED9A95F1F743
S11301D000008BB9299A85E08A95F1F700002998E7
S11301E095E09A95F1F70000299A85ED8A95F1F743
S11301F0000008959EE0EAE2F1E0DF011D929A9585
S1130200E9F79FEF9AB994B1936094B9623008F416
S1130210AFC098E190931E016093290110922501CB
S113022090E4909326018093270190E0805C9F4F97
S1130230809328018FEF8AB984B1836084B91BB895
S113024085B18C7F85B9BFEFE0E7F2E0B150E040C3
S1130250F040E1F700C0000080911E0184FF33C02C
S113026080620E94D100EFE4F6E43197F1F700C018
S1130270000080911E0180620E94D10087E592E017
S11302800197F1F700C0000080911E0180620E9476
S1130290D10080911E0180620E94D10084E080938D
S11302A020018CE00E94D10081E00E94D100AFE3E4
S11302B0BFE11197F1F700C0000082E080931F01B5
S11302C086E00C94D10083E08BB9299A25E02A9525
S11302D0F1F70000299895E09A95F1F70000299A22
S11302E0A5EDAA95F1F70000EFE4F6E43197F1F7F4
S11302F000C000008BB9299AF5E0FA95F1F70000E7
S1130300299825E02A95F1F70000299A95ED9A9508
S1130310F1F70000AFE4B6E41197F1F700C0000074
S11303208BB9299AB5E0BA95F1F700002998E5E070
S1130330EA95F1F70000299AF5EDFA95F1F7000036
S113034087E592E00197F1F700C0000082E08BB9E5
S1130350299A95E09A95F1F700002998A5E0AA95C5
S1130360F1F70000299AB5EDBA95F1F7000091CFA5
S113037090E190931E0150CF289A90911E0194FD14
S113038013C0982F92959F709BB9299A95E09A95DE
S1130390F1F70000299895E09A95F1F70000299A61
S11303A095ED9A95F1F700008BB9299A85E08A9525
S11303B0F1F70000299895E09A95F1F70000299A41
S11303C085ED8A95F1F7000081E090E00895CF93E0
S11303D0DF93EC014DE050E06AE271E08CE291E0E1
S11303E00E94D102D0932B01C0932A0198819923B2
S11303F031F1219605C09D30B1F099919923F9F01E
S11304009A30C9F74DE050E06AE271E08CE291E085
S11304100E94D102D0932B01C0932A01FE0131978F
S113042090819D3051F78DE0ECE2F1E0AAE2B1E079
S113043001900D928A95E1F799919111E1CF80E0B5
S1130440DF91CF910895EF92FF920F931F93CF9373
S1130450DF93E82EF12CC701880F991F9C01225DC0
S11304603E4F7901D2E0F701129102917F01C0E081
S11304700115110541F40CC08A3051F00E94BC01F1
S1130480CF5FC83259F0F80181918F018111F4CF07
S113049080E20E94BC01CF5FC832D1F7D15019F776
S11304A0DF91CF911F910F91FF90EF900895CF931B
S11304B0DF93CDB7DEB764970FB6F894DEBF0FBEF7
S11304C0CDBF62E080E10E94FA000E9479000E94A0
S11304D09B0284B1886284B92D9A2A9ACE0101962E
S11304E07C0105E111E00E94840080911C0190913F
S11304F01D0196958795969587959F938F931F9346
S11305000F93FF92EF920E94E302C7010E94E7015A
S113051080E00E9423029FEF23ED80E3915020406E
S11305208040E1F700C000000F900F900F900F90F3
S11305300F900F90D8CF789483E08093800083E16C
S1130540809381008DE790E09093890080938800E8
S113055082E080936F0008951F920F920FB60F925E
S113056011248F939F93AF93BF9380912101909116
S11305702201A0912301B09124010196A11DB11D76
S11305808093210190932201A0932301B09324012D
S1130590BF91AF919F918F910F900FBE0F901F90BD
S11305A018956817790768F4FB01DC01E40FF51F5F
S11305B0A40FB51F02C002900E9241505040D8F7CC
S11305C008950C94F104AEE0B0E0E9EEF2E00C948E
S11305D0AD050D891E8986E08C831A8309838FEF0C
S11305E09FE79E838D83AE01475E5F4F6F89788D51
S11305F0CE0101960E940503EF81F885E00FF11FFB
S113060010822E96E4E00C94C905ABE0B0E0EBE078
S1130610F3E00C949F056C017B018A01FC011782B5
S11306201682838181FFCCC1CE0101963C01F60183
S11306309381F70193FD859193FF81917F01882335
S113064009F4BAC1853239F493FD859193FF819100
S11306507F01853229F4B60190E00E940505E7CFB9
S1130660912C212C312CFFE1F315D8F08B3279F049
S113067038F4803279F08332A1F4232D20611DC037
S11306808D3261F0803369F4232D216016C0832DEF
S11306908260382EE32DE4603E2E2AC0F32DF860EC
S11306A01DC037FC2DC020ED280F2A3040F08E32BB
S11306B0B9F436FC81C1232D2064322E19C036FED4
S11306C006C08AE0989E200D1124922E11C0EAE003
S11306D02E9E200D1124222EF32DF0623F2E08C0F1
S11306E08C3621F4832D8068382E02C0883641F47C
S11306F0F70193FD859193FF81917F018111B3CF20
S1130700982F9F7D9554933028F40C5F1F4F9FE3DF
S113071099830DC0833631F0833771F0833509F046
S113072059C021C0F801808189830E5F1F4F88243E
S11307308394912C530113C02801F2E04F0E511CF5
S1130740F801A080B18036FE03C0692D70E002C0BC
S11307506FEF7FEFC5010E94FA044C018201F32D73
S1130760FF773F2E16C0280122E0420E511CF801EB
S1130770A080B18036FE03C0692D70E002C06FEF27
S11307807FEFC5010E94E6044C01F32DF0683F2E73
S1130790820133FC1BC0822D90E088169906B0F4C8
S11307A0B60180E290E00E9405052A94F4CFF50199
S11307B037FC859137FE81915F01B60190E00E947C
S11307C0050521102A9421E0821A910881149104CC
S11307D071F7E8C0843611F0893641F5F80137FE27
S11307E007C060817181828193810C5F1F4F08C0B3
S11307F060817181072E000C880B990B0E5F1F4FCF
S1130800F32DFF763F2E97FF09C090958095709544
S113081061957F4F8F4F9F4FF0683F2E2AE030E065
S1130820A3010E944105882E861845C0853731F4FE
S1130830232D2F7EB22E2AE030E025C0932D997F00
S1130840B92E8F36C1F018F4883579F0B5C08037E9
S113085019F0883721F0B0C0E92FE061BE2EB4FE54
S11308600DC0FB2DF460BF2E09C034FE0AC0292F31
S11308702660B22E06C028E030E005C020E130E05A
S113088002C020E132E0F801B7FE07C06081718147
S1130890828193810C5F1F4F06C06081718180E06B
S11308A090E00E5F1F4FA3010E944105882E861819
S11308B0FB2DFF773F2E36FE0DC0232D2E7FA22E5B
S11308C0891458F434FE0BC032FC09C0832D8E7E8B
S11308D0A82E05C0B82CA32C03C0B82C01C0B92C79
S11308E0A4FE0FC0FE01E80DF11D8081803321F4C8
S11308F09A2D997EA92E09C0A2FE06C0B394B39482
S113090004C08A2D867809F0B394A3FC11C0A0FE1C
S113091006C0B21488F4280C922C9B180EC0B21492
S113092060F4B60180E290E00E940505B394F7CF2D
S1130930B21418F42B1802C0982C212CA4FE10C059
S1130940B60180E390E00E940505A2FE17C0A1FC59
S113095003C088E790E002C088E590E0B6010CC0CF
S11309608A2D867859F0A1FE02C08BE201C080E294
S1130970A7FC8DE2B60190E00E940505891438F4C5
S1130980B60180E390E00E9405059A94F7CF8A941B
S1130990F301E80DF11D8081B60190E00E94050588
S11309A08110F5CF222009F442CEB60180E290E016
S11309B00E9405052A94F6CFF6018681978102C02C
S11309C08FEF9FEF2B96E2E10C94BB05FC010590A1
S11309D0615070400110D8F7809590958E0F9F1F3D
S11309E00895FB01DC0102C001900D92415050407A
S11309F0D8F70895FC016150704001900110D8F7B8
S1130A00809590958E0F9F1F08950F931F93CF93FA
S1130A10DF93FB01238121FD03C08FEF9FEF2CC0E7
S1130A2022FF16C04681578124813581421753071E
S1130A3044F4A081B1819D012F5F3F4F3183208316
S1130A408C93268137812F5F3F4F3783268314C0D1
S1130A508B01EC01FB010084F185E02D0995892BC4
S1130A60E1F6D80116968D919C91179701961796E9
S1130A709C938E931697CE01DF91CF911F910F9186
S1130A800895FA01AA27283051F1203181F1E89420
S1130A906F936E7F6E5F7F4F8F4F9F4FAF4FB1E06D
S1130AA03ED0B4E03CD0670F781F891F9A1FA11D68
S1130AB0680F791F8A1F911DA11D6A0F711D811D69
S1130AC0911DA11D20D009F468943F912AE0269F2E
S1130AD011243019305D3193DEF6CF010895462F8D
S1130AE04770405D4193B3E00FD0C9F7F6CF462F6E
S1130AF04F70405D4A3318F0495D31FD40524193D7
S1130B0002D0A9F7EACFB4E0A69597958795779593
S1130B106795BA95C9F700976105710508959B011A
S1130B20AC010A2E06945795479537952795BA95A3
S1130B30C9F7620F731F841F951FA01D08952F927C
S1130B403F924F925F926F927F928F929F92AF9259
S1130B50BF92CF92DF92EF92FF920F931F93CF93A6
S1130B60DF93CDB7DEB7CA1BDB0B0FB6F894DEBF3D
S1130B700FBECDBF09942A88398848885F846E8463
S1130B807D848C849B84AA84B984C884DF80EE80AD
S1130B90FD800C811B81AA81B981CE0FD11D0FB6B6
S1130BA0F894DEBF0FBECDBFED010895F894FFCFDA
S1130BB07300720025732025640A61742074656DC6
S10D0BC0702025640025640A00007B
S9030000FC
