S00C00006F76656E2E7372656360
S11300000C945A000C9477000C9477000C947700AD
S11300100C9477000C9477000C9477000C94770080
S11300200C9477000C9477000C9477000C9448029D
S11300300C9477000C9477000C9477000C94770060
S11300400C9477000C9477000C9477000C94770050
S11300500C9477000C9477000C9477000C94770040
S11300600C9477000C9477000C9477000C94770030
S11300700C9477000C9477000C9477000C94770020
S11300800C9477000C9477000C9477000C94770010
S11300900C9477000C9477000C9477000C94770000
S11300A00C9477000C9477000C9477000C947700F0
S11300B00C94770011241FBECFEFD8E0DEBFCDBF74
S11300C011E0A0E0B1E0E2E2F5E002C005900D929B
S11300D0AE30B107D9F721E0AEE0B1E001C01D9226
S11300E0A531B207E1F70E94FF010C948F020C9432
S11300F00000FC01643678F46A3050F521E030E009
S11301008EEF9EEF918380838EEF828361110BC00B
S113011083E090E008958EEF9EEF918380838EEFCD
S1130120828323E030E0E20FF31F8DEC689F912D72
S113013011249695969596952AE0929F601911241C
S1130140605D6293692F9111F1CF83E090E008958F
S113015022E030E0D5CFCF92DF92EF92FF920F935F
S11301601F93CF934115510591F08A016B017C01D6
S113017020E030E0C0E0F601E20FF31F8081F701D8
S11301800995CF5F2C2F30E020173107A0F3CF91D2
S11301901F910F91FF90EF90DF90CF900895CF9231
S11301A0DF92EF92FF920F931F93CF93FB01019085
S11301B00020E9F731978F01061B170B89F07B01AB
S11301C06C0120E030E0C0E0F701E20FF31F808112
S11301D0F6010995CF5F2C2F30E020173107A0F3EB
S11301E0CF911F910F91FF90EF90DF90CF900895E2
S11301F0623008F4C0C088E180930E0184B183604A
S113020084B98FEF8AB983ED90E30197F1F700C0C9
S1130210000085B18C7F85B980910E018062289899
S11302208BB9299883EC99E00197F1F700C000009D
S1130230299A83EC99E00197F1F700C0000029980E
S113024083EC99E00197F1F700C0000081EE94E09F
S11302500197F1F700C0000080910E018062289898
S11302608BB9299883EC99E00197F1F700C000005D
S1130270299A83EC99E00197F1F700C000002998CE
S113028083EC99E00197F1F700C0000089EF90E05A
S11302900197F1F700C0000080910E018062289858
S11302A08BB9299883EC99E00197F1F700C000001D
S11302B0299A83EC99E00197F1F700C0000029988E
S11302C083EC99E00197F1F700C0000084E080938B
S11302D0100128988CE08BB9299883EC99E0019758
S11302E0F1F700C00000299A83EC99E00197F1F737
S11302F000C00000299883EC99E00197F1F700C051
S11303000000289881E08BB9299883EC99E0019743
S1130310F1F700C00000299A83EC99E00197F1F706
S113032000C00000299883EC99E00197F1F700C020
S1130330000083EF91E00197F1F700C0000082E034
S113034080930F01289886E08BB9299883EC99E073
S11303500197F1F700C00000299A83EC99E0019716
S1130360F1F700C00000299883EC99E00197F1F7B8
S113037000C00000089580E180930E013FCF6230F9
S113038021F16330F9F06130D9F090E0890F806891
S113039028988BB9299883EC99E00197F1F700C06C
S11303A00000299A83EC99E00197F1F700C000005E
S11303B0299883EC99E00197F1F700C000000895B3
S11303C090E4E4CF90E4980FE1CF982FDFCF289A00
S11303D08BB9299883EC99E00197F1F700C00000EC
S11303E0299A83EC99E00197F1F700C0000029985D
S11303F083EC99E00197F1F700C000000895CF93D2
S1130400DF9300D01F92CDB7DEB762E080E10E9497
S1130410F80060E071E087EE91E00E94CF000E9456
S11304203002789488EEC82E83E0D82EE12CF12C8B
S113043061E080E00E94BF010E943F02A701960193
S11304400E946D02622FCE0101960E947900AC01D8
S1130450BE016F5F7F4F87EE91E00E94AB00E8CF53
S1130460E1E8F0E080818960808380E49FE19093FB
S113047089008093880082E080936F0008956091E2
S1130480110170911201809113019091140108954A
S11304901F920F920FB60F9211248F939F93AF93D5
S11304A0BF938091110190911201A0911301B09119
S11304B014010196A11DB11D8093110190931201A5
S11304C0A0931301B0931401BF91AF919F918F91A9
S11304D00F900FBE0F901F901895A1E21A2EAA1B21
S11304E0BB1BFD010DC0AA1FBB1FEE1FFF1FA217E0
S11304F0B307E407F50720F0A21BB30BE40BF50BDD
S1130500661F771F881F991F1A9469F76095709565
S1130510809590959B01AC01BD01CF010895F8949D
S1050520FFCF07
S111052248656C6C6F20776F726C642100006A
S9030000FC
