S00C00006F76656E2E7372656360
S11300000C945A000C9477000C9477000C947700AD
S11300100C9477000C9477000C9477000C94770080
S11300200C9477000C9477000C9477000C94DC0308
S11300300C9477000C9477000C9477000C94770060
S11300400C9477000C9477000C9477000C94770050
S11300500C9477000C9477000C9477000C94770040
S11300600C9477000C9477000C9477000C94770030
S11300700C9477000C9477000C9477000C94770020
S11300800C9477000C9477000C9477000C94770010
S11300900C9477000C9477000C9477000C94770000
S11300A00C9477000C9477000C9477000C947700F0
S11300B00C94770011241FBECFEFD8E0DEBFCDBF74
S11300C011E0A0E0B1E0E6E7F8E002C005900D928F
S11300D0A232B107D9F721E0A2E2B1E001C01D923A
S11300E0A932B207E1F70E9462030C9439040C941C
S11300F000006436B8F043E050E0FC01E40FF51F63
S11301002DEC629F912D11249695969596958AE0F3
S1130110989F60191124605D6293692F9111F1CF4A
S1130120CA0108956A3018F042E050E0E6CF41E099
S113013050E0E3CFCF93DF93AB01603127E2720746
S113014038F1C5E0D0E0FC01EC0FFD1F9A01ADECE5
S1130150BCEC0E9423049695879596958795969571
S11301608795BC01660F771F9C01220F331F220F56
S1130170331F220F331F260F371F421B530B405DC3
S11301804293AC01892B11F7CE01DF91CF910895F1
S1130190683E23E0720718F0C4E0D0E0D4CF6436A0
S11301A0710518F0C3E0D0E0CECF6A30710518F0C5
S11301B0C2E0D0E0C8CFC1E0D0E0C5CFCF92DF929B
S11301C0EF92FF920F931F93CF934115510591F036
S11301D08A016B017C0120E030E0C0E0F601E20F0F
S11301E0F31F8081F7010995CF5F2C2F30E0201792
S11301F03107A0F3CF911F910F91FF90EF90DF9003
S1130200CF900895CF92DF92EF92FF920F931F93B6
S1130210CF93FB0101900020E9F731978F01061B72
S1130220170B89F07B016C0120E030E0C0E0F7019E
S1130230E20FF31F8081F6010995CF5F2C2F30E088
S113024020173107A0F3CF911F910F91FF90EF90EA
S1130250DF90CF900895EF92FF920F931F93CF9367
S1130260DF934115510569F08A01D62F7C01C0E066
S11302708D2FF7010995CF5F2C2F30E02017310720
S1130280B8F3DF91CF911F910F91FF90EF900895F4
S113029082E880937A0010927B00089521E030E098
S11302A0082E01C0220F0A94EAF720937E008F7073
S11302B0806480937C0080917A00806480937A00CB
S11302C080917A0086FDFCCF80917800909179002E
S11302D0089521E030E0082E01C0220F0A94EAF7C5
S11302E020937E008F70806680937C0080917A00DA
S11302F0806480937A0080917A0086FDFCCF80919F
S113030079000895CF93DF93CDB7DEB760970FB62A
S1130310F894DEBF0FBECDBF61E171E08EE493E0DF
S11303200E9402012FEF33ED80E3215030408040E2
S1130330E1F700C0000010E060E0812F0E942A0372
S11303408FEF0E944E0361E0812F0E942A038FEFFA
S11303500E944E030FEF010F60E0802F0E942A03DA
S11303608FEF0E944E0361E0802F0E942A038FEFDB
S11303700E944E030EEF010F60E0802F0E942A03BB
S113038080E20E944E0361E0802F0E942A0380E2F3
S11303900E944E039FEF21EE34E091502040304004
S11303A0E1F700C000001F5F103131F660E080E02B
S11303B00E942A0340E150E060E28EE493E00E9450
S11303C02B0161E080E00E942A0340E150E060E2FA
S11303D08EE493E00E942B0100E080E00E9469011A
S11303E0E82E0E94CF0310E0F12C0E94C603683C63
S11303F071058105910598F4111175C080E00E9482
S1130400690190E08E199F0911E00B9774F710E0D1
S11304100E94C603683C71058105910568F31111BA
S113042062C080E00E946901E82E0E94CF0310E0C0
S1130430F12C0E94C603683C710581059105A0F466
S1130440111115C080E00E9469019701281B310930
S113045011E02B3031056CF710E00E94C603683CB4
S113046071058105910560F3112309F4B6CF0023CA
S113047009F4B3CF015080E1E0E0F1E0DE01119630
S113048001900D928A95E1F760E080E00E942A03D2
S1130490602F6E7FCE0108960E94790040E150E003
S11304A0BE016F5F7F4F8EE493E00E94DE0061E047
S11304B080E00E942A03602F6160CE0108960E94AA
S11304C0790040E150E0BE016F5F7F4F8EE493E01E
S11304D00E94DE00602F617080E00E942A038EE794
S11304E00E944E037ACF0F3F09F49BCF0F5FC3CF17
S11304F0623008F4ABC088E18093220184B1836048
S113050084B98FEF8AB92FEF80E792E021508040C1
S11305109040E1F700C0000085B18C7F85B98091DF
S11305202201806228988BB9299825E02A95F1F751
S11305300000299A85E08A95F1F7000029988FE850
S113054091E00197F1F700C000008FE19EE401976C
S1130550F1F700C0000080912201806228988BB9D5
S1130560299895E09A95F1F70000299A25E02A95B3
S1130570F1F7000029988FE891E00197F1F700C0A6
S1130580000087E592E00197F1F700C00000809138
S11305902201806228988BB9299895E09A95F1F701
S11305A00000299A25E02A95F1F7000029988FE8A0
S11305B091E00197F1F700C0000084E080932401EA
S11305C028988CE08BB9299895E09A95F1F700006A
S11305D0299A25E02A95F1F7000029988FE891E0FF
S11305E00197F1F700C00000289881E08BB92998A1
S11305F095E09A95F1F70000299A25E02A95F1F7FC
S1130600000029988FE891E00197F1F700C00000FD
S11306108FE39FE10197F1F700C0000082E080932F
S11306202301289886E08BB9299895E09A95F1F7EB
S11306300000299A25E02A95F1F7000029988FE80F
S113064091E00197F1F700C00000089580E18093E4
S1130650220154CF623001F16330D9F06130B9F036
S113066090E0890F806828988BB9299885E08A954D
S1130670F1F70000299A95E09A95F1F7000029987E
S11306808FE891E00197F1F700C00000089590E42D
S1130690E8CF90E4980FE5CF982FE3CF289A8BB951
S11306A0299885E08A95F1F70000299A95E09A95B2
S11306B0F1F7000029988FE891E00197F1F700C065
S11306C000000895CF93DF93CDB7DEB760970FB6E0
S11306D0F894DEBF0FBECDBF62E080E10E947802D5
S11306E00E9448010E94B70378940E94820188EE18
S11306F0C82E83E0D82EE12CF12C1FED61E080E0C0
S11307000E942A0340E150E06EEF70E0CE010196B2
S11307100E9432040E94C603A70196010E940104AC
S1130720B901CE0101960E949A0021E030E02C0F1D
S11307303D1F820F931FFC01108380E00E944E0135
S1130740BC01CE0107960E949A0027E030E02C0FEE
S11307503D1F820F931FFC01108340E150E0BE0156
S11307606F5F7F4F8EE493E00E94DE00C7CFE1E825
S1130770F0E080818960808380E89EE39093890023
S11307808093880082E080936F0008956091250132
S1130790709126018091270190912801089510926B
S11307A08500109284001092250110922601109267
S11307B027011092280108951F920F920FB60F92ED
S11307C011248F939F93AF93BF93809125019091B0
S11307D02601A0912701B09128010196A11DB11D08
S11307E08093250190932601A0932701B0932801BB
S11307F0BF91AF919F918F910F900FBE0F901F905B
S11308001895A1E21A2EAA1BBB1BFD010DC0AA1F3D
S1130810BB1FEE1FFF1FA217B307E407F50720F065
S1130820A21BB30BE40BF50B661F771F881F991FE0
S11308301A9469F760957095809590959B01AC0129
S1130840BD01CF010895A29FB001B39FC001A39F32
S1130850700D811D1124911DB29F700D811D1124F5
S1130860911D0895DC0101C06D9341505040E0F7A3
S10908700895F894FFCF87
S1130876204F7074696F6E202020202020202020B5
S11308860057656C636F6D65212020202020202091
S105089620003C
S9030000FC
