S00C00006F76656E2E7372656360
S11300000C945A000C9477000C9477000C947700AD
S11300100C9477000C9477000C9477000C94770080
S11300200C9477000C9477000C9477000C946D0278
S11300300C9477000C9477000C9477000C94770060
S11300400C9477000C9477000C9477000C94770050
S11300500C9477000C9477000C9477000C94770040
S11300600C9477000C9477000C9477000C94770030
S11300700C9477000C9477000C9477000C94770020
S11300800C9477000C9477000C9477000C94770010
S11300900C9477000C9477000C9477000C94770000
S11300A00C9477000C9477000C9477000C947700F0
S11300B00C94770011241FBECFEFD8E0DEBFCDBF74
S11300C011E0A0E0B1E0E4EFF7E002C005900D928A
S11300D0A431B107D9F721E0A4E1B1E001C01D9238
S11300E0AF31B207E1F70E9420020C94F8030C949C
S11300F000000F931F93CF938C01C62F61E070E033
S1130100C43658F5CA30B8F182E090E00E94B402D7
S1130110F801808391839C0141E050E0E2E0F0E04B
S11301206DEC03C0D8012D913C91D901A40FB51FEA
S1130130C69F912D11249695969596958AE0989F41
S1130140C0191124C05DCC93C92F4150510950F7F7
S1130150CF01CF911F910F91089583E090E00E9409
S1130160B402D8018C9311969C939C0142E050E018
S1130170E3E0F0E0D5CF81E090E00E94B402D80142
S11301808D939C93C05DFC01C083E1E0F0E0CF015E
S1130190CF911F910F910895CF92DF92EF92FF922A
S11301A00F931F93CF934115510591F08A016B0171
S11301B07C0120E030E0C0E0F601E20FF31F808113
S11301C0F7010995CF5F2C2F30E020173107A0F3FA
S11301D0CF911F910F91FF90EF90DF90CF900895F2
S11301E0CF92DF92EF92FF920F931F93CF93FB0175
S11301F001900020E9F731978F01061B170B89F056
S11302007B016C0120E030E0C0E0F701E20FF31F56
S11302108081F6010995CF5F2C2F30E0201731073C
S1130220A0F3CF911F910F91FF90EF90DF90CF90AB
S11302300895623008F4C0C088E18093140184B149
S1130240836084B98FEF8AB983ED90E30197F1F766
S113025000C0000085B18C7F85B980911401806253
S113026028988BB9299883EC99E00197F1F700C09D
S11302700000299A83EC99E00197F1F700C000008F
S1130280299883EC99E00197F1F700C0000081EE12
S113029094E00197F1F700C000008091140180629E
S11302A028988BB9299883EC99E00197F1F700C05D
S11302B00000299A83EC99E00197F1F700C000004F
S11302C0299883EC99E00197F1F700C0000089EFC9
S11302D090E00197F1F700C0000080911401806262
S11302E028988BB9299883EC99E00197F1F700C01D
S11302F00000299A83EC99E00197F1F700C000000F
S1130300299883EC99E00197F1F700C0000084E09C
S11303108093160128988CE08BB9299883EC99E096
S11303200197F1F700C00000299A83EC99E0019746
S1130330F1F700C00000299883EC99E00197F1F7E8
S113034000C00000289881E08BB9299883EC99E0DB
S11303500197F1F700C00000299A83EC99E0019716
S1130360F1F700C00000299883EC99E00197F1F7B8
S113037000C0000083EF91E00197F1F700C0000096
S113038082E080931501289886E08BB9299883EC44
S113039099E00197F1F700C00000299A83EC99E0F5
S11303A00197F1F700C00000299883EC99E00197C8
S11303B0F1F700C00000089580E1809314013FCF5D
S11303C0623021F16330F9F06130D9F090E0890FA7
S11303D0806828988BB9299883EC99E00197F1F704
S11303E000C00000299A83EC99E00197F1F700C05E
S11303F00000299883EC99E00197F1F700C0000010
S1130400089590E4E4CF90E4980FE1CF982FDFCFE4
S1130410289A8BB9299883EC99E00197F1F700C0E9
S11304200000299A83EC99E00197F1F700C00000DD
S1130430299883EC99E00197F1F700C00000089532
S1130440CF93DF9300D0CDB7DEB762E080E10E94A6
S1130450190166E071E088E092E00E94F0000E94D9
S11304605502789488EEC82E83E0D82EE12CF12C26
S113047061E080E00E94E0011A8219820E94640215
S1130480A70196010E949202622FCE0101960E945A
S1130490790069817A81AC0188E092E00E94CC0005
S11304A089819A810E946803E3CFE1E8F0E08081CA
S11304B08960808380E49FE1909389008093880021
S11304C082E080936F000895609117017091180184
S11304D08091190190911A0108951F920F920FB6FD
S11304E00F9211248F939F93AF93BF938091170121
S11304F090911801A0911901B0911A010196A11DC2
S1130500B11D8093170190931801A0931901B09322
S11305101A01BF91AF919F918F910F900FBE0F90D1
S11305201F901895A1E21A2EAA1BBB1BFD010DC03A
S1130530AA1FBB1FEE1FFF1FA217B307E407F5078F
S113054020F0A21BB30BE40BF50B661F771F881F6B
S1130550991F1A9469F760957095809590959B0101
S1130560AC01BD01CF0108950F931F93CF93DF9387
S1130570869F8001879F100D969F100D1124C8013E
S11305800E94D002EC01009729F0A80160E070E01D
S11305900E94F103CE01DF91CF911F910F91089535
S11305A00F931F93CF93DF938230910510F482E071
S11305B090E0E0911D01F0911E0120E030E0A0E008
S11305C0B0E0309719F140815181028113814817BD
S11305D05907C8F08417950769F4109731F01296FB
S11305E00C93129713961C9327C000931D0110932C
S11305F01E0122C02115310519F04217530718F4C2
S11306009A01BD01EF01DF01F801DBCF21153105AE
S1130610F9F0281B390B2430310580F48A819B8141
S11306206115710521F0FB019383828304C09093CB
S11306301E0180931D01FE01329644C0FE01E20FAB
S1130640F31F8193919322503109398328833AC04F
S113065020911B0130911C01232B41F420910201B4
S11306603091030130931C0120931B012091000160
S1130670309101012115310541F42DB73EB7409168
S1130680040150910501241B350BE0911B01F091ED
S11306901C01E217F307A0F42E1B3F0B28173907A0
S11306A078F0AC014E5F5F4F2417350748F04E0FCA
S11306B05F1F50931C0140931B018193919302C0CF
S11306C0E0E0F0E0CF01DF91CF911F910F91089509
S11306D0CF93DF93009709F481C0FC013297138212
S11306E01282A0911D01B0911E01109781F4208106
S11306F03181820F931F20911B0130911C01281717
S1130700390751F5F0931C01E0931B0167C0ED011B
S113071020E030E0CE17DF0740F44A815B819E0180
S113072041155105F1F0EA01F5CFD383C28340812D
S11307305181840F951FC817D90759F4888199816D
S1130740840F951F0296918380838A819B81938372
S113075082832115310529F4F0931E01E0931D01D4
S11307603DC0E901FB83EA8349915991C40FD51F28
S1130770EC17FD0761F480819181840F951F029627
S1130780E90199838883828193819B838A83E0E052
S1130790F0E012968D919C911397009719F0FD014A
S11307A0DC01F7CF8D919C9111979D012E5F3F4FF6
S11307B0820F931F20911B0130911C0128173907C8
S11307C069F4309729F410921E0110921D0102C0A1
S11307D013821282B0931C01A0931B01DF91CF916D
S11307E00895DC0101C06D9341505040E0F7089535
S10707F0F894FFCFA7
S11307F400001F01200048656C6C6F20776F726CD9
S10708046421000067
S9030000FC
